:100000000C94E7010C9404020C9404020C94040276
:100010000C9404020C9404020C9404020C94040248
:100020000C9404020C9404020C944A100C940610D4
:100030000C94791D0C9404020C9404020C94040298
:100040000C9404020C9404020C9404020C94040218
:100050000C9404020C9425110C9404020C940402D8
:100060000C9404020C9404020C9404020C940402F8
:100070000C9404020C9404020C9404020C940402E8
:100080000C9404020C9404020C9404020C940402D8
:100090000C9404020C9404020C9404020C940402C8
:1000A0000C9404020C9404020C94040229002B000A
:1000B000E000E100350000001E00140004001D00F7
:1000C00034004C051F001A0015001B002F002C00E7
:1000D00020000900160006003000E7002100130090
:1000E00017001900E200025322000A000700050071
:1000F0000000AA002F003400000035000000A90015
:1001000030002E000000310000004B0023000D00E5
:100110000B000E0000004E0024000F001100100024
:100120005000AE00250018000800360051002C00D9
:1001300026001C000C00370052000041270033004D
:10014000120038004F00E7002D002A002800E500CB
:100150000100000001000100010001000100000099
:100160003A0044004A004E00010001003B004500F7
:100170004D004B00010001003C002F0026022F0221
:10018000010001003D0030002702300201000100A3
:100190003E000100010001000000AC000100010070
:1001A000000001000000AB000100010000000100A0
:1001B000000001003F0001000100010000000100FB
:1001C00040000100010001000100010041000100A8
:1001D00001000100010001004200010001000100D6
:1001E00001000100430001000100010001000100C5
:1001F00001004C00010001000100000001000100AD
:1002000001000100010000000100140004001D00B5
:100210000100010001001A0016001B00010001008E
:1002200001000800070006000100010001001500A0
:100230000900190001000100010017000A00050073
:1002400000000100010001000000010000000100A9
:1002500001000100000001000000010001001C007D
:100260000B00110000000100010018000D0010003B
:100270000100010001000C000E000100010001005E
:10028000010012000F000100010001000100130035
:10029000330001000100010001004C0001000100D9
:1002A0000100000005010980A10185031A81002ACF
:1002B0008300160100260300950175108100C0051A
:1002C0000C0901A10185041A01002A9C02160100F3
:1002D000269C02950175108100C005010906A10147
:1002E0008505050719E029E7150025019508750121
:1002F00081020507190029EF1500250195F0750108
:1003000081020508190129059505750191029501DC
:1003100075039101C005010906A101050719E0292E
:10032000E715002501950875018102950175088181
:10033000010507190029FF150026FF00950675081D
:10034000810005081901290595057501910295019E
:1003500075039101C009023B00020100A0FA0904E3
:1003600000000103010100092111010001224000E8
:100370000705810308000A090401000103000000C9
:100380000921110100012271000705820320000AE2
:100390001201100100000008EDFE07130100010228
:1003A00003010403300000001603450072006700DB
:1003B0006F0064006F007800200045005A000000C4
:1003C00008035A00530041000000040309041124EB
:1003D0001FBECFEFDAE0DEBFCDBF11E0A0E0B1E09D
:1003E000E6E2F0E402C005900D92AC3BB107D9F70C
:1003F00022E0ACEBB1E001C01D92A73EB207E1F7ED
:100400000E94D31B0C94E61F0C940000E8EDF0E072
:1004100080818E7F80831092E2001092DA00109229
:10042000E100A0EEB0E08C9181608C9380818F77A9
:10043000808319BCA7EDB0E08C918E7F8C93808176
:100440008F7E80831092B40208952091E400309151
:10045000E50095E6A9012091EC00822F817020FF34
:1004600006C08091E80080FF06C080E008952091DA
:10047000E80022FD1AC08091D902882389F08530D6
:1004800089F08091EB0085FD0FC02091E400309150
:10049000E50042175307F9F29150E1F684E0089520
:1004A00082E0089583E0089581E00895EF92FF923D
:1004B0000F931F93CF937C018B010E942502C82FBD
:1004C000811117C08091E80085FD0BC08091E80084
:1004D0008E778093E8000E942502882399F3C82F25
:1004E00008C0F70181917F018093F100015011094B
:1004F00049F78C2FCF911F910F91FF90EF900895A6
:100500008091DB0287FF13C08091E80082FF06C064
:100510008091E8008B778093E80004C08091D90235
:100520008111F2CF08958091D9028823D9F3809167
:10053000E80080FFF8CF8091E8008E77ECCF982F0D
:100540009093E900242F762F50E0891731F07091B5
:10055000EC002091ED005091F00021FD07C09F5F5D
:10056000973071F78093E90081E008953091EB00B6
:100570003E7F3093EB003091ED003D7F3093ED00F6
:100580003091EB0031603093EB007093EC002093DE
:10059000ED005093F0002091EE0027FDE0CF80E0C9
:1005A0000895CF92DF92EF92FF920F931F93CF9314
:1005B000DF93C8EDD0E088818F7E8883E7EDF0E09F
:1005C00080818160808384E082BF81E08093B40277
:1005D00088818E7F888302EE10E0F80110821092ED
:1005E000DA0081EEC82ED12CF601108288818F7737
:1005F000888388818068888388818F7D888319BCFF
:100600001092D9021092DA021092D8021092D702F8
:1006100090EEE92EF12CF70180818B7F8083888119
:100620008160888342E060E080E00E949F02F601E2
:1006300080818E7F8083F8018081816080838081CA
:1006400088608083F70180818E7F808388818061CC
:100650008883DF91CF911F910F91FF90EF90DF90F2
:10066000CF900895FC018091E1029091E2028617FB
:100670009707A0F06115710529F49091E8009E7725
:100680009093E80090E06115710551F4911108C054
:100690008091E80082FF34C080E00895BC01F2CF71
:1006A0008091D9028823C1F18530C1F18091E800A1
:1006B00083FD30C08091E80082FDEACF8091E800A0
:1006C00080FFE1CF8091F3002091F200382F611577
:1006D000710519F02830310558F091E028303105C6
:1006E00009F090E02091E8002E772093E800CBCF2E
:1006F00081918093F100615071092F5F3F4FE7CFE7
:100700008091D902882341F0853041F08091E80042
:1007100083FFBECF81E0089582E0089583E00895CD
:1007200008958091B602089580917002811110920F
:100730007002089580916F0290916E02892B9091C2
:100740006D02892B8093BC01909170029923A1F0D6
:10075000892B8093BC0180911201882341F1809103
:10076000910287FF24C08EE1EEEBF1E090E0815032
:1007700000F591110E949403E0919302F09194028C
:100780003097E1F080911201882359F08091910215
:1007900087FF07C08091BC018093BD0185E08093F5
:1007A000BC010280F381E02D8CEB91E0099486E09E
:1007B000DBCF21912223D9F29F5FD9CF0895909169
:1007C00012019923D1F09091910297FF16C0E82F62
:1007D000E695E695E695EE31E0F4F0E0E454FE4F60
:1007E000282F277081E090E001C0880F2A95EAF752
:1007F00080959281892382830895EEEBF1E09191B7
:10080000891303C0DF0111971C9291E0E43CF907C2
:10081000B1F70895909112019923C1F0909191023E
:1008200097FF14C0E82FE695E695E695EE31F8F4CB
:10083000F0E0E454FE4F877021E030E001C0220F69
:100840008A95EAF78281822B82830895AEEBB1E02C
:10085000EFEF90E02D91821751F0EF3F19F4211145
:1008600001C0E92F9F5F9630A9F7EF3F09F4089583
:100870000E2E000CFF0BE454FE4FE6CFE92FEE0FD7
:10088000E90FEE0F8E0F982F9770869586958695B7
:1008900025E0829FF0011124EF5CFD4F50E040E025
:1008A00080E0219130E0092E02C0369527950A9408
:1008B000E2F721703327042E01C0220F0A94EAF7D1
:1008C000822B4F5F5F4F4530510559F70895E92F4F
:1008D000EE0FE90FEE0F8E0F982F977041E001C0D9
:1008E000440F9A95EAF786958695869595E0899FB7
:1008F000F0011124EF5CFD4F30E020E070E05191F9
:10090000DF011197CB01022E02C0969587950A94BC
:10091000E2F7817081958527842385278C932F5F4B
:100920003F4F2530310559F708958091300290915D
:10093000FF01981301C008958F5F8770FACF882355
:1009400041F0809590916E02892380936E020C9401
:100950009A030895882339F090916E02982B909312
:100960006E020C949A030895882341F0809590912B
:100970006F02892380936F020C949A030895882351
:1009800039F090916F02982B90936F020C949A0318
:1009900008952091E4013091E5012817390771F09D
:1009A0009093E5018093E401E0919302F091940229
:1009B000309721F00084F185E02D0994089520916D
:1009C000E2013091E3012817390771F09093E301B8
:1009D0008093E201E0919302F0919402309721F02C
:1009E0000680F781E02D0994089510926E0210920E
:1009F0006D020E949A0390E080E00E94DF0490E084
:100A000080E00C94C9046093710270937202809329
:100A10007302909374020C94F504E0919302F091A8
:100A20009402309721F00190F081E02D099480E04C
:100A30000895882309F452C0823871F40E940D058C
:100A400081FF4CC089E30E940A040E949A0389E353
:100A50000E94DF030C949A03833859F40E940D0519
:100A600080FF3CC083E50E940A040E949A0383E54C
:100A7000EFCF843859F40E940D0582FF2FC087E420
:100A80000E940A040E949A0387E4E2CF9CEF980F29
:100A9000913AF0F290E2980F983088F4877021E054
:100AA00030E0A90102C0440F551F8A95E2F7CA0140
:100AB000809590916F02892380936F02CBCF9BE545
:100AC000980F933020F490E080E00C94DF04885A73
:100AD000873120F490E080E00C94C904089590914F
:100AE000910292FF06C0282F28712830F9F4877FE1
:100AF000846093FF06C0282F28712831F1F4877E87
:100B000084612091920220FF06C0382F387138305E
:100B1000D9F4877F816021FF06C0282F28712831F2
:100B2000D1F4877E816194FD877E0895282F2471FA
:100B30002430F9F68B7F8860DCCF282F2471243194
:100B400001F78B7E8861DDCF382F3171313019F795
:100B50008E7F8860E0CF282F2171213121F78E7E92
:100B60008861E1CFCF93DF93972F70E026E0929FCB
:100B7000600D711D1124FB0134E5839FE00DF11D13
:100B80001124EE0FFF1FE455FF4FC591D491CE0104
:100B9000C238D105B9F1E8F5C133D10509F499C0DE
:100BA00050F5C932D10509F48DC0CA32D10509F416
:100BB00097C0C11542E5D40708F039C1C11521E538
:100BC000D20708F0B8C1C83ED10508F020C1C03E28
:100BD000D10568F5C83AD10508F089C0C53AD105F4
:100BE00008F07AC1C130D10511F1209709F443C052
:100BF0002497E8F440C0C533D10509F45CC0C9337B
:100C0000D105B9F620919102237089F080EE90E031
:100C10000EC0C33ED10591F168F4C03ED105F9F094
:100C2000C23ED10531F62091910222FD20C0DF9114
:100C3000CF910895C63ED10561F1C73ED10581F13E
:100C4000C43ED10509F0B5CF2091920221FFEFCF2C
:100C50008091910284FD0FC087EE90E0E8CF209153
:100C6000910220FD98C13091920230FFE0CF83EED7
:100C700090E024FFDCCF90E080E0D9CF209191027A
:100C800022FD8CC13091920230FDC0CF24FFCFCF26
:100C9000F2CF2091910223FFCACF24FDECCFDCCF0D
:100CA0002091910223FD7DC13091920231FFEECF60
:100CB00084EE90E0BCCF2091910225FFB8CF89E26D
:100CC00090E0B5CF2091910225FFB1CF85E390E070
:100CD000AECF2091910226FFAACF8AE290E0A7CF63
:100CE0002091910226FFA3CF81E390E0A0CFCF3BDC
:100CF000D10508F682EE94E4C83AD10509F497CFFD
:100D000089EE94E4C93AD10509F491CF8AEE94E4CE
:100D1000CA3AD10509F48BCF85EB94E4CB3AD105DF
:100D200009F485CF86EB94E4CC3AD10509F47FCF62
:100D300083EB94E4CB3BD10509F479CF84EB94E4C5
:100D4000CC3BD10509F473CF87EB94E4CD3AD105C0
:100D500009F46DCF8CEC94E4C03BD10509F467CF66
:100D60008DEC94E4CE3AD10509F461CF83E895E4A3
:100D7000CF3AD10509F45BCF8AE895E4C13BD105B0
:100D800009F455CF82E995E4C23BD10509F44FCF70
:100D900084E995E4C33BD10509F449CF81E296E4A7
:100DA000C43BD10509F443CF83E296E4C53BD105AA
:100DB00009F43DCF84E296E4C63BD10509F437CF70
:100DC00085E296E4C73BD10509F431CF86E296E48B
:100DD000C83BD10509F42BCF87E296E4C93BD10586
:100DE00009F425CF8FE694E4CD3BD10509F41FCF5C
:100DF00080E794E4CE3BD10509F419CF80E094E478
:100E0000CA3BD10509F013CF8AE296E410CFC11591
:100E100030E5D30708F073C0C11540E4D40708F0EB
:100E20006AC0DA95C115DF4108F401CF24CFC1159E
:100E300036E5D30718F5C11545E5D40708F091C08C
:100E4000C11584E5D80708F087C09C2F9695969524
:100E5000AE0143705527C115D34508F471C021E098
:100E600030E002C0220F331F4A95E2F740E2949F20
:100E7000C0011124822B932B9A68D9CEC1153AE573
:100E8000D30778F4C11549E5D40708F074C0C1153B
:100E900088E5D80708F4EFCE9C2F8827806F906AEA
:100EA000C6CEC1159BE5D90708F4E5CECE01C11524
:100EB0002CE5D20708F46CC090568115904208F0DA
:100EC000DACE8D2F8F710E946F0590E0982F8827C2
:100ED00088279F718C2B4DC081E890E4C53AD105DD
:100EE00009F4A5CE82E890E4C63AD10509F49FCE74
:100EF00083E890E49CCECE019F70906A98CE9E01CC
:100F0000E4E036952795EA95E1F723708C2F8695D6
:100F10008695837040E2849FC0011124922BC37098
:100F200021E030E002C0220F331FCA95E2F7822B86
:100F3000932B9C687CCE9C2F8827816F906A77CEFC
:100F400021E030E002C0220F331F4A95E2F740E271
:100F5000949FC0011124EBCF9C2F8827846F906A47
:100F600066CE8C2F0E946F0590E0982F88278827E7
:100F70009F7190625CCE8C2F8F700E946F0534E061
:100F8000D695C7953A95E1F7CF709C2F90694FCED3
:100F9000992790664CCE89E390E049CE82EE90E0AE
:100FA00046CE86EE90E043CEBF92CF92DF92EF9294
:100FB000FF920F931F93CF93DF938C01C090680231
:100FC000D0906902E0906A02F0906B028091710209
:100FD00090917202A0917302B0917402C82AD92A2A
:100FE000EA2AFB2ACFE1D0E0BC2ED701C6010C2EA5
:100FF00004C0B695A795979587950A94D2F780FD7A
:101000000EC0219788F7B12C8B2DDF91CF911F91C6
:101010000F91FF90EF90DF90CF90BF900895B801AF
:101020008C2F0E94B205019761F3EECFCF93DF932F
:10103000EC010E94D407BE01DF91CF910C94B20560
:101040000E941608292F2F7092959F7092509E3003
:1010500078F4E92FF0E0E851F04E0C946D1E803FDB
:1010600019F020F4883E20F481E00895843FE1F3F4
:1010700080E00895883EC0F3813FD1F7F5CF822FFD
:10108000869586958695089527982F980895269891
:101090002E98089525982D98089556985E9808954D
:1010A000279A2F9A0895269A2E9A0895259A2D9A6E
:1010B0000895CF92DF92EF92FF92CF936B017C0164
:1010C000C701AA27BB27C0E10097A105B10519F404
:1010D000D701CB01C0E0492F5A2F6B2F772741153D
:1010E00051056105710519F0C85FDB01CA01AC014A
:1010F000BD01E4E07695679557954795EA95D1F758
:10110000411551056105710519F0CC5FDB01CA017C
:10111000AC01BD0132E076956795579547953A95B4
:10112000D1F7411551056105710519F0CE5FDB015D
:10113000CA01B695A79597958795892B8A2B8B2BF6
:1011400009F0CF5F0E944D080E944A080E9447089C
:101150000E944408C150C73040F4EC2FF0E0EA5040
:10116000F04E0C946D1E0E945608C701B601CF9137
:10117000FF90EF90DF90CF9008950E9456080E9454
:101180005308F3CF0E9456080E945008EECF0E94E9
:1011900056080E945308F8CF0E94590860936802CD
:1011A0007093690280936A0290936B020C94F50429
:1011B0000F931F9341E050E060E070E004C0440FE3
:1011C000551F661F771F8A95D2F7CB01BA0160952C
:1011D0007095809590950091680210916902209118
:1011E0006A0230916B0260237123822393231F9143
:1011F0000F910C94CC0890916C0280958923809378
:101200006C02282F277071F4282F082E000C330B46
:101210009217130639F08595859585950E94D80813
:1012200010926C0208950F931F9341E050E060E02C
:1012300070E004C0440F551F661F771F8A95D2F7D0
:101240008091680290916902A0916A02B0916B024C
:101250008A019B01082B192B2A2B3B2BC901B801B2
:101260001F910F910C94CC0884B1807F84B985B113
:10127000807F85B98AB1837F8AB98BB1837F8BB92F
:101280003E984698089580B38C7080BB81B3836F7D
:1012900081BB0895CF9384E090E00E94731EC82F15
:1012A00081E290E00E94731E982F8C2FCF910895B9
:1012B000CF93DF9300D00F92CDB7DEB79C01909112
:1012C000D902943019F599833B832A8382E0809375
:1012D000E9008FEF9091E800815095FD06C095EDF3
:1012E0009A95F1F700008111F5CF8091E80085FF14
:1012F0000DC050E040E063E070E0CE0101960E9436
:1013000056028091E8008E778093E8000F900F904E
:101310000F90DF91CF910895CF93DF9300D00F927C
:10132000CDB7DEB72091D902243031F523E02983EF
:10133000805891099B838A8382E08093E9008FEF34
:101340009091E800815095FD06C095ED9A95F1F7D2
:1013500000008111F5CF8091E80085FF0DC050E0BD
:1013600040E063E070E0CE0101960E945602809159
:10137000E8008E778093E8000F900F900F90DF9138
:10138000CF910895CF93DF93EC018091D9028430FF
:10139000B9F5809112018823B1F18091910287FF04
:1013A00032C060E282E08093E9008FEF9091E80024
:1013B000815095FD06C095ED9A95F1F700008111D9
:1013C000F5CF8091E80085FF1BC08091120170E08D
:1013D00050E040E0811104C050E040E068E070E07F
:1013E000CE010E9456028091E8008E778093E8003B
:1013F00080E2FE01A7EBB2E001900D928A95E1F741
:10140000DF91CF91089568E081E0CDCF882309F482
:1014100002C18238B9F40E940D0581FDFCC089E348
:101420000E940A040E949A032FEF81EE94E021505B
:1014300080409040E1F700C0000089E30E94DF0394
:101440000C949A038338A1F40E940D0580FDE3C03B
:1014500083E50E940A040E949A032FEF81EE94E034
:10146000215080409040E1F700C0000083E5E6CFC6
:101470008438A1F40E940D0582FDCDC087E40E944E
:101480000A040E949A032FEF81EE94E021508040DD
:101490009040E1F700C0000087E4D0CF9CEF980FA8
:1014A000913A18F40E940A04CBCF90E2980F98303A
:1014B00068F4877021E030E001C0220F8A95EAF7D6
:1014C00080916F02822B80936F02BACF9BE5980FB9
:1014D000933070F4853A31F0863A39F083E890E041
:1014E0000C94DF0481E890E0FBCF82E890E0F8CF35
:1014F00098E5980F973108F08EC0883A09F446C0F5
:10150000893A09F446C08A3A09F446C08B3A09F48C
:1015100046C08C3A09F446C08B3B09F446C08C3B6C
:1015200009F446C08D3A09F446C0803B09F446C030
:101530008E3A09F446C08F3A09F446C0813B09F45B
:1015400046C0823B09F446C0833B09F446C0843B55
:1015500009F446C0853B09F446C0863B09F446C001
:10156000873B09F446C0883B09F446C0893B09F42F
:1015700046C08D3B09F446C08E3B09F446C08A3B09
:1015800009F446C090E080E00C94C90482EE90E03B
:10159000FBCF89EE90E0F8CF8AEE90E0F5CF85EBB7
:1015A00090E0F2CF86EB90E0EFCF83EB90E0ECCFD2
:1015B00084EB90E0E9CF87EB90E0E6CF8CEC90E015
:1015C000E3CF8DEC90E0E0CF83E891E0DDCF8AE8D7
:1015D00091E0DACF82E991E0D7CF84E991E0D4CFEE
:1015E00081E292E0D1CF83E292E0CECF84E292E03A
:1015F000CBCF85E292E0C8CF86E292E0C5CF87E20A
:1016000092E0C2CF8FE690E0BFCF80E790E0BCCF02
:101610008AE292E0B9CF0895CF93C82F0E94060ABC
:10162000C93349F42FEF87EE93E02150804090407A
:10163000E1F700C000008C2FCF910C941905EF92B8
:10164000FF920F931F93CF93DF930E944D080E9448
:101650004A080E9447080E94440888E8E82EF12CB6
:101660008FEF90E0F701918380830AE810E0F801A2
:1016700091838083CCE8D0E0998388830E945608C8
:10168000FFEF20E782E0F15020408040E1F700C00A
:1016900000000E9453089FEFE0E7F2E09150E04025
:1016A000F040E1F700C000000E9450082FEF80E7F3
:1016B00092E0215080409040E1F700C000000E947D
:1016C0004A08EFEFF0E722E0E150F0402040E1F778
:1016D00000C000000E9447088FEF90E7E2E08150D1
:1016E0009040E040E1F700C000000E944408809173
:1016F0007F028770FFEF8F9FC0011124959587951A
:10170000959587959927F70191838083F8019183B7
:101710008083998388830E944D080E944A080E9412
:101720004708DF91CF911F910F91FF90EF900C949C
:10173000440860917B028CE090E00C94871E6FEE71
:101740007EEF90E080E00E94A51E60E082E090E0E5
:101750000E94871E60E083E090E00E94871E109246
:10176000710210927202109273021092740260E081
:1017700084E090E00E94871E60E081E290E00E9499
:10178000871E60E085E090E00E94871E60E086E0B2
:1017900090E00E94871E6FEF87E090E00E94871E16
:1017A00040E050E0BA0188E090E00E94991E60E0BD
:1017B0008DE090E00E94871E40E050E0BA0188E191
:1017C00090E00E94991E60E087E190E00E94871EF1
:1017D00040E050E0BA018CE190E00E94991E60E088
:1017E00080E290E00E94871E10927F021092800299
:1017F000109281021092820284E0806180937F02C5
:1018000040917F025091800260918102709182022A
:101810008FE090E00E94991E40E050E0BA0183E121
:1018200090E00C94991E10926F0280911201EEEBE1
:10183000F1E0882359F08091910287FF07C08EE183
:10184000DF011D928A95E9F70C94F50486E0F8CF44
:101850001F93CF93DF93CDB7DEB7AA970FB6F89457
:10186000DEBF0FBECDBF8BED92E02091F100FC01F9
:101870002193CF01F2E0833E9F07B9F78091DC020C
:10188000833009F46FC0B8F4813009F446C0823067
:1018900009F4B0C08091E80083FF87C28091DB0229
:1018A0009091DC029A3008F080C2E92FF0E0E3501A
:1018B000F04E0C946D1E8A3009F48BC08B3009F405
:1018C0006EC0893039F78091DB02813219F780913F
:1018D000DF029091E0020297E8F68091E800877FAE
:1018E0008093E8008091E80082FF37C09091F30078
:1018F0008091F200029729F48091F1008B7F813072
:1019000021F48091F1008093B6028091E8008B77FA
:101910008093E8000E948002BDCF8091DB02813A73
:1019200009F0B8CF8091E800877F8093E80080912C
:10193000DF029091E002892B61F460E287EB92E094
:1019400070E00E9432038091E8008B778093E8007A
:10195000A1CF60E090E080E0F3CF8091D9028111C7
:10196000C1CF98CF8091DB02813A09F093CF80916B
:10197000DF029091E002892B09F08CCF8091E80082
:10198000877F8093E8008091E80080FFFCCF809102
:1019900012018093F1008091E8008E77B9CF809199
:1019A000DB02813209F076CF8091DF029091E00274
:1019B000892B09F06FCF8091E800877F8093E80042
:1019C0000E9480028091DD02809312010E94130C1C
:1019D00061CF8091DB02813209F05CCF8091E80019
:1019E000877F8093E8000E9480028091DE028093CE
:1019F000B50250CF8091DB02813A09F04BCF809144
:101A0000E800877F8093E8008091E80080FFFCCFAA
:101A10008091B502BECF803899F0823809F0C5C1F7
:101A20008091DF028F70873008F0BFC18093E9009A
:101A30008091EB0085FB882780F91092E90006C0B1
:101A40008091D7029091D802911182609091E80024
:101A5000977F9093E8008093F1001092F1008091BD
:101A6000E8008E779EC1882309F48CC1823009F08A
:101A70009CC18091DD0281118FC18091DF028F7046
:101A80002FEF280F263008F090C18093E9002091B5
:101A9000EB0020FF81C1933031F48091EB00806234
:101AA0008093EB0079C19091EB0090619093EB00F3
:101AB00021E030E001C0220F8A95EAF72093EA0086
:101AC0001092EA008091EB008860EACF81116DC12D
:101AD0001091DD021F778091E3008078812B809345
:101AE000E3008091E800877F8093E8000E948002F5
:101AF0008091E80080FFFCCF8091E30080688093B4
:101B0000E30082E0111183E08093D9024EC1805836
:101B1000823008F04AC18091DD029091DE028C3D56
:101B200023E09207A1F583E08A838AE289834FB795
:101B3000F894DE01139620E03EE051E2E32FF0E05E
:101B400050935700E49120FF03C0E295EF703F5F90
:101B5000EF708E2F90E0EA30C0F0C7968D939D9382
:101B60002F5F243159F74FBF8091E800877F809322
:101B7000E8006AE270E0CE0101960E943203809193
:101B8000E8008B778093E80010C1C096E7CF4091C2
:101B9000DF025091E002292F33272330310509F469
:101BA00045C078F52130310509F47BC08BE390E026
:101BB000E5E5F3E02230310509F0F7C02091E800B7
:101BC000277F2093E8002091E1023091E202821702
:101BD000930708F49C0140E02115310509F070C01D
:101BE00041116EC08091E80082FDC9CF8091D90279
:101BF000882329F2853019F28091E80083FFF2CF23
:101C0000BECF2132310509F440C02232310509F03E
:101C1000CCC04115510509F44EC04130510509F0C1
:101C2000C4C081E790E0E4EAF2E0C8CF99278130B0
:101C30009105D9F0009771F082309105F1F003978A
:101C400009F0B3C0E2EAF3E0E4918E2F90E0E2EA1B
:101C5000F3E007C0EAECF3E0E4918E2F90E0EAECC9
:101C6000F3E0009709F4A1C0A9CFE0ECF3E0E49120
:101C70008E2F90E0E0ECF3E0F4CFE8EAF3E0E491BB
:101C80008E2F90E0E8EAF3E0ECCF4115510571F0BA
:101C90004130510509F089C089E090E0E0E8F3E0C7
:101CA0008DCF82E190E0E0E9F3E088CF89E090E039
:101CB000E7E6F3E083CF80E490E0E5E1F3E07ECF78
:101CC0008091D902882309F45ACF853009F457CF7F
:101CD0008091E80083FD53CF8091E80082FD82CFA0
:101CE0008091E80080FF78CF9091F3008091F2001E
:101CF0002115310519F08830910550F041E0089721
:101D000009F040E08091E8008E778093E80064CF8E
:101D100044914093F1003196215031090196E8CF6A
:101D2000803809F042C08091E800877F8093E80006
:101D30008091DA028093F10092CE811136C0109129
:101D4000DD02123090F58091E800877F8093E800F3
:101D50001093DA020E948002112311F084E005C082
:101D60008091E30087FDFACF81E08093D90242E0C1
:101D700061EC81E00E949F0242E261EC82E00E94FD
:101D80009F0213C08091DD02813079F481E09330AD
:101D900009F080E08093D8021092E9008091E80079
:101DA000877F8093E8000E9480028091E80083FF93
:101DB0000AC08091E800877F8093E8008091EB0063
:101DC00080628093EB00AA960FB6F894DEBF0FBE38
:101DD000CDBFDF91CF911F910895CF93C82F87304A
:101DE00070F58091060190910701892B89F564E6D1
:101DF00070E080E40E94A61D909307018093060185
:101E0000892BD1F464E670E082E10E94021E909377
:101E1000070180930601892B79F481E090E001C0ED
:101E2000880FCA95EAF764E670E080950E94021E6A
:101E30009093070180930601CF910C94551E8A3030
:101E4000B9F040F4883071F0893079F0209A289800
:101E5000CF9108958C3091F070F08D30B9F73E9AA3
:101E60004698F6CF219A2998F3CF229A2A98F0CF54
:101E7000239A2B98EDCF529A5A98EACF539A5B98AF
:101E8000E7CF80E290E09093070180930601809174
:101E9000DF0181110EC00E94A01D81E08093DF014F
:101EA0002FEF83ED90E3215080409040E1F700C098
:101EB000000064E670E080E40E94A61D9093070194
:101EC00080930601892B09F04EC064E670E080E043
:101ED0000E94021E9093070180930601892B09F04E
:101EE00042C064E670E080E00E94021E9093070109
:101EF00080930601892BB9F564E670E08FE30E94B8
:101F0000021E9093070180930601892B61F50E94C0
:101F1000551E64E670E080E40E94A61D90930701C0
:101F200080930601892BF9F464E670E08CE00E944E
:101F3000021E9093070180930601892BA1F464E6A9
:101F400070E080E00E94021E9093070180930601DA
:101F5000892B49F464E670E08FE30E94021E90939F
:101F60000701809306010E94551E80910601089585
:101F7000CF93873008F040C080910601909107010F
:101F8000C0E0892B71F464E670E080E40E94A61D35
:101F90009093070180930601892B31F0C0E00E94E5
:101FA000551E8C2FCF91089564E670E083E10E9466
:101FB000021E9093070180930601892B79F764E64E
:101FC00070E081E40E94A61D9093070180930601B2
:101FD000892B21F784E690E00E94311E97FF05C00F
:101FE0009093070180930601D9CFC82FC095109216
:101FF000070110920601D3CFCFB18FB18695869598
:102000008C73C3708C2BC82FC095CBCF1F920F92AF
:102010000FB60F9211242F933F934F935F936F93BB
:102020007F938F939F93AF93BF93CF93DF93EF9360
:10203000FF93D091E900DF708091EC00C82FC17050
:1020400080FDC0E81092E9008091F000877F8093C6
:10205000F00078940E94280C1092E9008091F00022
:1020600088608093F000CD2BCF70C093E900FF9182
:10207000EF91DF91CF91BF91AF919F918F917F9120
:102080006F915F914F913F912F910F900FBE0F90E5
:102090001F9018951F920F920FB60F9211242F9335
:1020A0003F934F935F936F937F938F939F93AF93E0
:1020B000BF93EF93FF938091E10082FF09C080916D
:1020C000E20082FF05C08091E1008B7F8093E100F8
:1020D0008091DA0080FF24C08091D80080FF20C06A
:1020E0008091DA008E7F8093DA008091D90080FFA2
:1020F0009FC080E189BD82E189BD09B400FEFDCFAA
:1021000081E08093D9028091B402811109C00E94BC
:1021100006020E94D1028091E20084608093E20076
:102120008091E10080FF17C08091E20080FF13C022
:102130008091E2008E7F8093E2008091E2008061D6
:102140008093E2008091D80080628093D80019BC0F
:1021500085E08093D9028091E10084FF2DC08091B9
:10216000E20084FF29C080E189BD82E189BD89B593
:10217000982F917080FFFBCF8091D8008F7D809346
:10218000D8008091E1008F7E8093E1008091E20091
:102190008F7E8093E2008091E20081608093E20074
:1021A0008091DA02882309F449C084E08093D9023F
:1021B0000E94130C0E940D058091E10083FF27C04F
:1021C0008091E20083FF23C08091E100877F8093AC
:1021D000E10082E08093D9021092DA028091E1005E
:1021E0008E7F8093E1008091E2008E7F8093E200F9
:1021F0008091E20080618093E20042E060E080E054
:102200000E949F028091F00088608093F000FF910F
:10221000EF91BF91AF919F918F917F916F915F915E
:102220004F913F912F910F900FBE0F901F901895D7
:1022300019BC1092D9021092B40272CF8091E300BF
:1022400087FD93E09093D902B3CF78941F921FB685
:102250001F9211248F939F93AF93BF938091750228
:1022600090917602A0917702B09178020196A11D1B
:10227000B11D8093750290937602A0937702B0937C
:102280007802BF91AF919F918F911F901FBE1F90B9
:1022900018952FB7F8948091750290917602A091CD
:1022A0007702B09178022FBF0895CF92DF92EF921C
:1022B000FF920F931F93CF93DF93C62F142F022FFC
:1022C000FC0182818823C1F06093F5010E944911CD
:1022D0009093E1018093E001C77081E001C0880F15
:1022E000CA95EAF7DF91CF911F910F91FF90EF9080
:1022F000DF90CF900C94BF048091F501861351C0FC
:102300002091E0013091E1014FB7F894809175027E
:1023100090917602A0917702B09178024FBF6C0144
:102320007D01EE24FF24A90170E060E0821B930B85
:10233000C416D506E606F70608F40197883C910511
:1023400080F5D0E2D10FC117B9F080E28C0F883050
:1023500040F4C77081E001C0880FCA95EAF70E9477
:10236000B404D83048F481E0912F977001C0880FF1
:102370009A95EAF70E94BF04802F0E940C0BD83078
:10238000B8F4177081E001C0880F1A95EAF7DF9161
:10239000CF911F910F91FF90EF90DF90CF900C9411
:1023A000B404C77081E001C0880FCA95EAF7EFCF87
:1023B000DF91CF911F910F91FF90EF90DF90CF9021
:1023C00008954F925F926F927F928F929F92AF92F9
:1023D000BF92CF92DF92EF92FF920F931F93CF9312
:1023E000DF9300D000D00F92CDB7DEB76C01FC01B7
:1023F00083819481892B39F01081F180812F8F2185
:102400008F3F09F013C60F900F900F900F900F9011
:10241000DF91CF911F910F91FF90EF90DF90CF90C0
:10242000BF90AF909F908F907F906F905F904F90F4
:1024300008950E94D407082F682F89819A810E94ED
:102440006704E12FF0E026E0F29EE00DF11D11247B
:1024500034E5039FE00DF11D1124EE0FFF1FE4553D
:10246000FF4F0591149109308DE51807F1F5F6013C
:102470008281882309F44EC080917F0291E0980FF9
:102480009770887F953008F4892B80937F02809124
:102490007F028770FFEF8F9FC0011124959587956C
:1024A00095958795992790938900809388009093BC
:1024B0008B0080938A0090938D0080938C004091D4
:1024C0007F025091800260918102709182028FE0C0
:1024D00090E00E94991E609168027091690280915B
:1024E0006A0290916B020E945908F601828188234A
:1024F00089F0033EFCE51F0709F4D3C008F0BDC016
:10250000013E3CE5130709F4C5C0023E8CE51807FF
:1025100009F4C5C017FFF2C0F6018281882309F4CF
:102520004DC080916F028093F40110926F028091F0
:102530007B02813009F4BDC0882309F4B6C0823023
:1025400009F4C4C0843009F4C8C08FE39CE9019742
:10255000F1F700C000005801E894B7F84CE0E42E11
:10256000F12C95010E2C02C0369527950A94E2F7BE
:102570002F7087E290E031F0822F90E02A3008F04F
:10258000B1C04D960E940C0B94E0E91AF108ECEFF3
:10259000EE16EFEFFE0629F780917B02813009F4F9
:1025A000A7C0882309F4A0C0823009F49DC08430FC
:1025B00009F4A2C08091F40180936F02F601828138
:1025C000882309F4CDC11092F5010230FCE51F0704
:1025D00008F4BCC106312CE5120738F098012A5FD7
:1025E0003C452730310508F0B1C10E944A0990935B
:1025F0009202809391020F303CE5130709F487C1E2
:1026000008F001C108309CE5190709F46AC108F017
:10261000D6C00430FCE51F0709F457C108F0BCC060
:1026200002303CE5130709F448C103301C4509F4A6
:1026300048C1609191021091920284E090E00E9462
:10264000871E612F81E290E00E94871E0F900F90FD
:102650000F900F900F90DF91CF911F910F91FF90EE
:10266000EF90DF90CF90BF90AF909F908F907F9032
:102670006F905F904F900C94130C043E9CE51907EB
:1026800091F084E0053EECE51E0709F043CF80930E
:102690007B0202C010927B020E94990B3BCF81E02B
:1026A000F6CF82E0F4CF83E0F2CF82EE0E94060AFA
:1026B0004CCF83E00E94AA0488E10E94060A88E1C8
:1026C0000E94190583E00E949F043FCF82EE0E9482
:1026D000060A87E50E940C0B38CF86EE0E940C0B91
:1026E00088E1F8CF06974ECF82EE0E94190562CF9F
:1026F0008CE20E940C0B5ECF88E2FBCF033FFCE52F
:102700001F07D9F140F5083D3CE5130791F1093D5C
:102710008CE51807F1F1073D9CE5190709F04ECF4C
:1027200026E241EE61EEC6010F900F900F900F90E0
:102730000F90DF91CF911F910F91FF90EF90DF905D
:10274000CF90BF90AF909F908F907F906F905F9051
:102750004F900C945511053FECE51E07B1F088F041
:10276000063F2CE5120709F029CF27E245EE66EE79
:10277000DACF27E245EE65EED6CF26E241EE60EEF7
:10278000D2CF27E245EE64EECECF26E241EE62EEF6
:10279000CACF28E241E0EFCF8091910280610630FC
:1027A0009CE5190709F447C08091910288600730C1
:1027B0001C4508F440C08091910280623CC00B30FF
:1027C000FCE51F0709F49BC068F409303CE51307DA
:1027D00009F48BC00A301C4509F02BCF809191027F
:1027E0008C6029C0809191028B7F0D309CE5190788
:1027F00011F1809191028D7F0E301C45E0F08091A7
:102800009102877F18C00A3FFCE51F0709F461C0E9
:1028100060F502313CE5130709F481C078F400311A
:102820009CE5190709F477C0809191028F7B0131F3
:102830001C4509F0FECE80939102FBCE0431FCE5ED
:102840001F0709F47AC008F470C005311C4509F06F
:10285000F0CE8091910282FB992790F921E0922796
:1028600090FB82F990FB83F9E6CF0D3F8CE51807CA
:1028700009F449C070F40B3FECE51E0771F180913B
:1028800092028E7F0C3F1C4509F0D3CE80939202BA
:10289000D0CE0F3F2CE5120709F44BC060F10115B3
:1028A0001D4509F0C6CE80919202982F90959170A7
:1028B0008E7F892B90FB81F9E9CF80919102816015
:1028C000BACF809191028260B6CF809191028460EC
:1028D000B2CF809192028160D9CF809192028260C2
:1028E000D5CF809191028064A6CF0E94130C809175
:1028F00091028068A0CF809192028360C7CF8091BF
:1029000091028E7F98CF809192028D7FBFCF809170
:1029100091028F7E90CF809191028F7D8CCF0E940B
:10292000130C809191028F7786CF80919102837FE3
:1029300082CF809192028C7FA9CF0E94130C90913C
:102940009102892F97FB87F9805875CF01159CE577
:10295000190709F448C00E3DECE51E0709F480C0D4
:1029600006311C4509F493C0F601008111818823CA
:1029700009F4BFC0C8010E94D407F82E682FC8010F
:102980000E946704B8018F2D0E94B2058C01B82EF9
:10299000F601E580E2943FE0E322F280F11010922C
:1029A0006E0280916C02877079F0FF2069F080E2FE
:1029B000800F883048F082E00E94FB0880916C0212
:1029C0008770AA24A3948111A12C912E92942FE0B8
:1029D0009222FBE0F91508F4C6C0E92DF0E0E95FAA
:1029E000FF4D0C946D1E0E94130CFFEF24E33CE09E
:1029F000F15020403040E1F700C00000F89481E041
:102A00008093E00080E28093D8001092C9008FE1AB
:102A10009EE40197F1F700C000001DBA1092680013
:102A20001CBC10BE1FBA10927A0010926E00109259
:102A30006F0010927100109272001092C9001092F3
:102A4000BC0014B817B81AB81DB810BA1092BC0060
:102A500015B818B81BB81EB811BA0C94003FD3CCE7
:102A60000F900F900F900F900F90DF91CF911F91CB
:102A70000F91FF90EF90DF90CF90BF90AF909F901D
:102A80008F907F906F905F904F900C949F0B882356
:102A900031F180916F028A7A91E009F490E090938D
:102AA000F60181111AC089E20E940A040F900F906A
:102AB0000F900F900F90DF91CF911F910F91FF908A
:102AC000EF90DF90CF90BF90AF909F908F907F90CE
:102AD0006F905F904F900C949A0385E3E5CF8091BF
:102AE000F601811104C089E20E94DF03DFCF85E394
:102AF000FBCFC8010E943E04F82E44CF212F2F7037
:102B0000E22E107F19F0E29490EFE922FF20C9F045
:102B1000EE2069F080E2800F883010F0B1100BC019
:102B200080916F02E82AE0926F020E949A03802F40
:102B30000E94060A18C080916E02E82AE0926E0296
:102B4000F4CF802F0E941905EE2069F0E094005E1A
:102B5000083010F0B1103CC080916F02E822E09282
:102B60006F020E949A03292D2850330B243031051F
:102B700010F40E940D05AA2009F445CC80916C0246
:102B800080FD41CCF60112828595859585950E9440
:102B90001309C6010E94E11180916C02859585950B
:102BA00085950F900F900F900F900F90DF91CF9120
:102BB0001F910F91FF90EF90DF90CF90BF90AF905B
:102BC0009F908F907F906F905F904F900C94D8085B
:102BD00080916E02E822E0926E02C3CF312F3F70E7
:102BE000832E107F103219F0829480EF8822802F7C
:102BF000BB2041F091E0B91631F1FF2079F1EE20D0
:102C000041F195CFFF2091F090917002892F882992
:102C1000E11003C00E94BF04A6CFE1E0EE12FACF9C
:102C2000981709F4A0CF809370029DCFE11006C0E1
:102C30000E949403882D0E94B40495CFF1E0EF1612
:102C400009F491CFF5CFFF2031F021E02E1508F4E3
:102C50008ACF882DDFCFE11086CFECCFEE2051F365
:102C6000893349F43FEF87EE93E031508040904044
:102C7000E1F700C00000802F0E94190574CF812F5A
:102C800086958695837061F0813009F06CCFC8011C
:102C90009370F11002C090E080E00E94C90463CFFD
:102CA000C8019370F11002C090E080E00E94DF0440
:102CB0005ACF812F837009F066C0F11054CF802F56
:102CC000829586958770880F880F602F6F70462ECB
:102CD000512C712C612C082E04C0440C551C661C10
:102CE000771C0A94D2F740E050E0BA0104FF0FC00D
:102CF0004FE050E060E070E004C0440F551F661FD5
:102D0000771F8A95D2F74095509560957095812FE1
:102D1000869586958370823019F1D8F400917102FE
:102D2000109172022091730230917402813069F027
:102D30004429552966297729CB01BA0160237123DB
:102D4000822393230E9403050ECF402A512A622A30
:102D5000732ACB01BA016429752986299729F2CFF4
:102D60004429552966297729009171021091720230
:102D70002091730230917402CB01BA016027712750
:102D800082279327DFCF8695FF2011F0812F817056
:102D9000882309F4E8CE802F829586958770880F66
:102DA000880F602F6F70462E512C712C612C082ECD
:102DB00004C0440C551C661C771C0A94D2F740E0F2
:102DC00050E0BA0104FF0FC04FE050E060E070E057
:102DD00004C0440F551F661F771F8A95D2F7409590
:102DE000509560957095812F869586958370823079
:102DF00019F1D8F4009168021091690220916A02D9
:102E000030916B02813069F0442955296629772970
:102E1000CB01BA0160237123822393230E94CC0843
:102E2000A2CE402A512A622A732ACB01BA01642910
:102E3000752986299729F2CF4429552966297729AA
:102E4000009168021091690220916A0230916B0230
:102E5000CB01BA016027712782279327DFCF1F702C
:102E6000FF2029F0812F0E941309802FD3CE802FBD
:102E70000E94B404812F0E94D80875CE802FE2EF03
:102E8000BE1609F44EC0EB1578F0F0EFBF1619F13D
:102E900021EFB21609F43DC0FF2009F465C0E1102E
:102EA00046CE812F8F713AC033EFB31609F43EC07E
:102EB00094EFB912F1CFFF2009F44BC01F71812F9D
:102EC0000E941309F8E01F9FC001112483608093C2
:102ED0006C02812F23C0FF20B9F0E11044CE1F7196
:102EE00061E070E080E090E004C0660F771F881F0B
:102EF000991F1A95D2F700916802109169022091EA
:102F00006A0230916B02A6CFE1E0EE1508F42BCEF9
:102F1000E6CF812F8F71FF2009F4ADCF0E941309F6
:102F200022CE812F8F71FF20C9F3A5CF60E070E022
:102F3000CB01FF2009F472CF1F7161E070E080E0E7
:102F400090E004C0660F771F881F991F1A95D2F76B
:102F500065CF81E00E94FB0821E02E1508F003CE2A
:102F600082E00E94FB08FFCDE1107ACE812F8F71A5
:102F700082CFE2EFBE16D1F1EB1500F1F0EFBF16F4
:102F800049F121EFB216D1F18091F701EE2009F459
:102F900041C0882341F08091F80191E08927809316
:102FA000F8011092F701802FF110C2CD0E9419058F
:102FB00086E0F60111928A95E9F7D5CD34EFB31684
:102FC000C1F0B31688F085EFB812DECFF110CBCD8B
:102FD00081E007C0FF2009F4C6CD8091F80191E09F
:102FE00089278093F801BFCD81E0F826F092F8019F
:102FF000BACDF110B8CD1092F801B5CDFF2039F05F
:103000008091F701882349F31092F701ACCDEE20AF
:1030100021F3A9CD882309F4A6CDF110A4CD809188
:10302000F80191E089278093F801EECF85E0DE0179
:10303000119601900D928A95E1F7F601228189811E
:103040009A812111F6C90E943E04082FFAC91F93E4
:10305000CF93DF938091FE01807FC1F48091FB01CB
:103060008823A1F080913002C091FF016091F901A5
:103070007091FA014091FC015091FD01D62FD723A8
:10308000DA01A095B09516E0C81304C0DF91CF9186
:103090001F91089590E04115510511F0DF3F31F483
:1030A00001968770F1CF2A0F3B1F17C0189FF001C0
:1030B000199FF00D1124E050FE4F21812713F0CF0E
:1030C00020812613EDCF22812111EACF2381348183
:1030D0002417350740F3241B350B283C310500F736
:1030E0002091FE012F7020612093FE0126E0289F91
:1030F000F001299FF00D1124EB5FFD4F80818F704F
:103100008061808389EF91E00E94E111DF91CF918E
:103110001F910C949504BF92CF92DF92EF92FF9291
:103120000F931F93CF93DF93CDB7DEB761970FB6A1
:10313000F894DEBF0FBECDBF8C0185E0F801DE0143
:103140001D9601900D928A95E1F7D8012C91119668
:103150003C9111971296EC9012978091FC019091FE
:10316000FD01009709F463C14091F9015091FA0102
:10317000642F65236F3F09F45AC11396CD90DC90FC
:10318000B090FB01BB2009F413C1C816D906C0F1E9
:10319000F601E81BF90BCF01FF24F394883C91055D
:1031A00008F0F12C8091FE01982F907FFF2009F408
:1031B000C1C091117DC0FE2C531327C0421325C0FE
:1031C000E11023C08F7080618093FE0189EF91E050
:1031D0000E94E1118091FE01D80115968C938F2DEC
:1031E00061960FB6F894DEBF0FBECDBFDF91CF91D1
:1031F0001F910F91FF90EF90DF90CF90BF900895B7
:10320000809590958C0D9D1DC7CFCD2829F0822FDC
:1032100083238F3F09F035C180E0B82FB170DB2EDA
:1032200080FF3CC0809130024091FF0156E0841342
:1032300015C02D873E878D859E850E941608292FF3
:1032400022952F702230F0F0243018F59F70F1F0A5
:10325000F8019581907FD1F4D12C1EC090E0589F49
:10326000F001599FF00D1124E050FE4F618136139B
:1032700006C06081261303C06281E6120FC001966A
:103280008770D5CF9F7011F0882331F3805E88302E
:1032900018F3C8010E94E111FD2CA1CFEE2009F422
:1032A0009ECF8091FE0181608093FE01F12C97CF2B
:1032B000531313C0421311C0E1100FC0D80115966B
:1032C0008C93C8010E94E11186E0F801A9EFB1E0FA
:1032D00001900D928A95E1F782CF2D873E878D85EB
:1032E0009E850E942008882309F1EE20F9F0809144
:1032F000FE01803270F02091F9013091FA01388797
:103300002F831986DB86CA868C87CE0107960E949A
:10331000E11186E0F801A9EFB1E001900D928A95E4
:10332000E1F70E942718FF24F39459CFC8010E94A7
:10333000E111F9CF91110CC089EF91E00E94E111E8
:1033400086E0E9EFF1E0DF011D928A95E9F747CFCA
:10335000531312C0421310C0E1100EC0F801858350
:10336000C8010E94E111E9EFF1E086E0DF011D9262
:103370008A95E9F7FB2C33CF2D873E878D859E8577
:103380000E942008882391F2EE2081F28091FE01B4
:10339000803208F4BECF2091F9013091FA013A83CE
:1033A00029831B82DD82CC828E83CE010196AFCF32
:1033B000C816D90640F0C81AD90AB8ECCB16D10401
:1033C00048F0F12CBDCF809590958C0D9D1D883CCB
:1033D0009105B8F7FE2CEE2009F4A8CF531316C0C0
:1033E000421314C08091FE0180FD6ECF982F907F14
:1033F00009F46ACFF8018583903F09F462CF982FD2
:10340000907F905F8F70892B85835BCF2D873E8760
:103410008D859E850E94200881117BCF8091FE01C1
:1034200081608093FE01C8010E94E111D8CEEE2098
:1034300009F47CCF2D873E878D859E850E942008CC
:10344000F82E882309F472CF86E0F801A9EFB1E0E5
:1034500001900D928A95E1F78091F9019091FA011E
:103460000E94160892959F70963041F48091F80161
:1034700091E089278093F8019093F7010E94271823
:10348000AECE81E08E25C9CE1F93CF93DF93CDB70B
:10349000DEB767970FB6F894DEBF0FBECDBF6D8B5A
:1034A0007E8B8F8B8E899F89892BE1F0852F8423DA
:1034B0008F3F09F098C05FEF4FEF14C03091F801D3
:1034C000332309F44EC0E42FF0E036E0539FE00DC3
:1034D000F11D1124EE0FFF1FED5EFE4F4081518163
:1034E000822B8C931A8A198A4B8B5C8B85E0FE01A8
:1034F0007396DE011D9601900D928A95E1F786E0A4
:10350000FE013D96DE01179601900D928A95E1F736
:10351000CE0107960E948B18811112C086E0FE0131
:103520003796DE01119601900D928A95E1F78A8512
:103530009B85892B29F08F81988589238F3FC9F539
:1035400016E0809130029091FF01891320C06796A8
:103550000FB6F894DEBF0FBECDBFDF91CF911F91A4
:10356000089580958223BDCF96E0929FD001939FCE
:10357000B00D1124A050BE4FFE01319601900D9266
:103580009A95E1F78093FF010E949504D9CF819F1E
:10359000C001112480509E4F0E948B188823B9F2DD
:1035A0008091300290E001968770992780933002D5
:1035B000C8CF2091FF0130E0C9010196877099279B
:1035C000409130024817190679F60E94130C1092A8
:1035D000FF011092300286E0E9EFF1E0DF011D9279
:1035E0008A95E9F7ADCF81E090E0042E01C0880F05
:1035F0000A94EAF7A52FB0E0AA51BE4F2C913D895D
:1036000031115CCF322F38235BCF8F929F92AF92D4
:10361000BF92CF92DF92EF92FF920F931F93CF93BF
:10362000DF938091060190910701892B91F08091A1
:10363000DE018F5F8093DE0181110BC00E94410F7C
:1036400090E09093070180930601892B11F40E946A
:103650001F0B03E812E07801C0E0912C37E0C32E85
:10366000CC0E8C2F0E94ED0E8C2D0E94ED0E8C2F17
:103670000E94B80FD7019D917D01D12C891729F0A7
:10368000FD0131978083DD24D3948C2D0E94B80FE7
:10369000F7019681891709F466C0868381E08D2938
:1036A000982A0E943409CF5FC730C1F60E944911A1
:1036B0006AEF70E00E94591E882ED091DD01DD2353
:1036C00009F45DC01092DD01E0917902F0917A0277
:1036D0007F012EE0E20EF11C40E0CBEF2AEFC22E7C
:1036E000D12C51915B3F81F0652F70E0282D392F4F
:1036F0008517D8F1261B370B2E313105E4F19F01D8
:1037000021503109D901CC93EE16FF0651F74093B1
:10371000DD01911002C0411134C01092DC01A09172
:103720007902B0917A022091DD01E6E9F2E044EA03
:1037300052E090E06191E80139918E01631751F0F8
:103740006C916B3FD1F48C93BF0161507109EB0117
:10375000388321E011964E175F0761F72093DD0152
:103760009093DC0112C080E09ACFD601A61BB70B64
:103770002A0F3B1FC1CF4D2FC7CF91E0EBCF911048
:10378000CCCF9091DC019111C8CF892DDF91CF91E1
:103790001F910F91FF90EF90DF90CF90BF90AF906F
:1037A0009F908F900895CDB7DEB72A970FB6F89403
:1037B000DEBF0FBECDBF84B7877F84BF0FB6F8943E
:1037C000A8958091600088618093600010926000ED
:1037D0000FBE80E890E00FB6F8948093610090935C
:1037E00061000FBE85B7806885BF85B7806885BFDB
:1037F0000E9406020E94D1028091E20084608093C0
:10380000E20078948091D9028823A1F01091E90018
:103810001F709091EC00892F817090FD80E8182B2B
:103820001092E9008091E80083FD0E94280C1F702F
:103830001093E90082E084BD93E095BD9AEF97BDB7
:1038400080936E000E94410F90E090930701809357
:1038500006010E9434090E944309A3E8B2E0E6E9A8
:10386000F2E011921D9222E0E43AF207D1F78EE0E5
:1038700090E00E94BB1E8093790290937A02FC0133
:103880000E962BEF2193E817F907E1F790E080E01F
:103890000E94811E8F3E9E4F11F00E949F0B8CE074
:1038A00090E00E94731E90E0B0E0A0E080937B0265
:1038B00090937C02A0937D02B0937E0289EA80936C
:1038C000800089E08093810024982C983F988AB1E9
:1038D0008F7C8AB96E98479A8BB180638BB9769A40
:1038E0008FE090E00E947B1E60937F0270938002C5
:1038F000809381029093820267708FEF689FB0017E
:10390000112475956795759567957727709389004C
:103910006093880070938B0060938A0070938D0091
:1039200060938C000E941F0B90E080E00E94811E3B
:103930008F3E9E4F11F00E949F0B82E090E00E940C
:10394000731E8093A5020E944A099093920280936D
:10395000910283E090E00E94731E682F70E090E077
:1039600080E00E94030588E091E0909394028093A8
:103970009302EE24EA9480E1A82E92E1B92E28E188
:10398000C22ED12C30E4932E8091D9028530D1F112
:103990000E94051BE6EAF2E0A6E9B2E010E000E0D2
:1039A000302F8D912191281709F479C090E0FF24E0
:1039B000F3942827422F4F2109F46CC099833A834E
:1039C0008F2191E009F490E09B830E94491181606E
:1039D000782F9D838C8349815A816B818D810E94D0
:1039E000441AF801EA55FD4F8081F826F0820E94C2
:1039F0000D059091A402891739F20E940D0580935C
:103A0000A402C2CF8091D902843009F110929502AC
:103A10000FB6F894A895C09260000FBE9092600017
:103A200083B7817F846083BF83B7816083BF7894CD
:103A3000889583B78E7F83BF0FB6F894A895809141
:103A40006000886180936000109260000FBE8091DA
:103A5000D802882309F498CF0E94410F90E09093F8
:103A60000701809306010E9434090E944309E6E998
:103A7000F2E0119282E0E43AF807D9F70E94051BC0
:103A8000E6E9F2E08191811120C022E0E43AF207F8
:103A9000C9F77ACF9F5FFF0C963009F08BCF0F5F8D
:103AA0001F4F0E30110509F07BCFEE82EF82188692
:103AB0000E9449118160782F9A8789874E815F81A2
:103AC00068858A850E94441A92CFA9BCB9BC09B402
:103AD00000FEFDCF8091D8008F7D8093D80080912B
:103AE000E00082608093E0008091E00081FDFCCFE7
:103AF0004BCF1F921FB61F9211248F939F93AF93AA
:103B0000BF9380919502811113C0809175029091AD
:103B10007602A0917702B09178024196A11DB11D65
:103B20008093750290937602A0937702B093780207
:103B3000BF91AF919F918F911F901FBE1F901895BD
:103B40001092B9008CE08093B8000895EF92FF9234
:103B50000F931F93CF93DF93182FEB011092BC00AC
:103B600084EA8093BC000E9449117C018091BC00D2
:103B700087FF27C08091B900887F883029F0809125
:103B8000B900887F8031D9F51093BB0084E8809319
:103B9000BC000E9449118C018091BC0087FF24C0A9
:103BA0002091B900287F90E080E02831B1F081E0D9
:103BB00090E0203411F490E080E091958195910996
:103BC0000CC0CF3FDC0791F20E9449118E199F096A
:103BD0008C179D0758F28EEF9FEFDF91CF911F91C9
:103BE0000F91FF90EF900895CF3FDC07A9F20E945C
:103BF0004911801B910B8C179D0770F2ECCF8FEF52
:103C00009FEFEBCF0F931F93CF93DF93EB01809345
:103C1000BB0084E88093BC000E9449118C01809114
:103C2000BC0087FF11C02091B900287F81E090E09F
:103C3000283211F490E080E0919581959109DF910F
:103C4000CF911F910F910895CF3FDC0741F30E9460
:103C50004911801B910B8C179D0708F38EEF9FEF86
:103C6000EECF0F931F93CF93DF93EC0184E8809303
:103C7000BC000E9449118C018091BC0087FF08C0E4
:103C80008091BB0090E0DF91CF911F910F9108953B
:103C9000CF3FDC0789F30E944911801B910B8C17E1
:103CA0009D0750F38EEF9FEFEECF84E98093BC0029
:103CB0000895AA1BBB1B51E107C0AA1FBB1FA61773
:103CC000B70710F0A61BB70B881F991F5A95A9F7C5
:103CD00080959095BC01CD010895EE0FFF1F0590D2
:103CE000F491E02D0994F999FECF92BD81BDF89A27
:103CF000992780B50895A6E1B0E044E050E00C9427
:103D0000AD1EA8E1B0E042E050E00C94AD1E262FBD
:103D1000F999FECF92BD81BDF89A019700B40216C1
:103D200039F01FBA20BD0FB6F894FA9AF99A0FBE6F
:103D300008950396272F0E94881E0E94871E252F14
:103D40000E94881E242F0C94881E0196272F0E9403
:103D5000881E0C94871EDC01CB01FC01F999FECF73
:103D600006C0F2BDE1BDF89A319600B40D92415003
:103D70005040B8F708950F931F93CF93DF9382308D
:103D8000910510F482E090E0E091E502F091E60206
:103D900030E020E0B0E0A0E0309799F42115310543
:103DA00009F447C0281B390B24303105C0F58A813E
:103DB0009B816115710571F1FB0193838283FE0183
:103DC00011C0408151810281138148175907F8F0D1
:103DD0004817590799F4109761F012960C931297AF
:103DE00013961C933296CF01DF91CF911F910F91C3
:103DF00008950093E5021093E602F4CF21153105F2
:103E000019F04217530718F49A01BD01EF01DF01C1
:103E1000F801C2CF9093E6028093E502D0CFFE0175
:103E2000E20FF31F81939193225031093983288344
:103E3000DACF2091E3023091E402232B41F4209168
:103E40000201309103013093E4022093E3022091B8
:103E50000001309101012115310541F42DB73EB724
:103E60004091040150910501241B350B4091E30260
:103E70005091E4024217530708F0B5CF241B350BCD
:103E80002817390708F4AFCFBC016E5F7F4F2617A4
:103E9000370708F4A8CF640F751F7093E40260938E
:103EA000E302FA01819391939ECFCF93DF93009722
:103EB000E9F0FC01329713821282C091E502D091A1
:103EC000E602DE0130E020E02097A1F4208131817C
:103ED000820F931F2091E3023091E40228173907E3
:103EE00009F067C0F093E402E093E302DF91CF9121
:103EF0000895DA01AE17BF0708F040C012964D9141
:103F00005C9113979D014115510599F7D9011396BD
:103F1000FC93EE9312974D915D91A40FB51FEA1794
:103F2000FB0779F4808191810296840F951FD90156
:103F300011969C938E938281938113969C938E937A
:103F40001297B0E0A0E08A819B810097B9F5FE014D
:103F500081919191E80FF91F8091E3029091E40221
:103F60008E179F0719F6109761F51092E6021092CE
:103F7000E502D093E402C093E302B8CFB383A283F7
:103F800040815181840F951FA817B90771F44E5FC6
:103F90005F4F8D919C911197480F591F518340831A
:103FA00012968D919C91938382832115310509F09E
:103FB000ADCFF093E602E093E50298CFDE01EC018D
:103FC000C2CF13961C921E921297D3CFF894FFCFB4
:103FD0002F082F08380838083A08380838083808F1
:103FE0002F082F083F08380838083F08B308BF08D3
:103FF000C408BD08C208C908C7080B0D330DD50E8B
:10400000330DD50E660D870DD50E900E9D0E7E15C7
:104010007E15EE15EE153F16B315B917B3155916E3
:064020002F173E173E17AA
:104026000000E702200020009103C20990038C09DA
:10403600580901000D010D020D030D040D050D00BB
:104046000C010C020C030C040C050C000B010B02FA
:104056000B030B040B050B000A010A020A030A04F0
:104066000A050A00090109020903090409050900EC
:1040760008010802080308040805080007010702EA
:1040860007030704070507000601060206030604E0
:1040960006050600050105020503050405050500DC
:1040A60004010402040304040405040003010302DA
:1040B60003030304030503000201020202030204D0
:1040C60002050200010101020103010401050100CC
:0C40D600000100020003000400050000CF
:00000001FF
