:100000000C9447020C9464020C9464020C946402F5
:100010000C9464020C9464020C9464020C946402C8
:100020000C9464020C9464020C9454180C94901771
:100030000C9448090C9464020C9464020C946402BD
:100040000C9464020C9464020C9464020C94640298
:100050000C9464020C94EC080C9464020C946402FA
:100060000C9464020C9464020C9464020C94640278
:100070000C9464020C9464020C9464020C94640268
:100080000C9464020C9464020C9464020C94640258
:100090000C9464020C9464020C9464020C94640248
:1000A0000C9464020C9464020C94640235043704CA
:1000B000420439043B043D043F0441044404460423
:1000C000480453044A044C044E045004520455049A
:1000D0002A052A0568056805A405BD076407BD074C
:1000E000C405BD07C106C106CE06CE06CE06CE06A5
:1000F000CE06CE06CE06CE06CE06CE06CE06CE0660
:10010000CE06CE06CE06CE06DF0607070C0713077F
:100110002B07750B7A0B840B780B7D0B820B800BF6
:10012000860E890E8C0E8F0E920E950E980EA115CE
:10013000C8156817C81568171016331668173117D1
:1001400044173B1C3B1C4E1C4E1C441C4E1C4E1C9E
:100150004E1C3B1C3B1C491C4E1C4E1C491C2900C0
:100160002B00E000E100350000001E001400040038
:100170001D003400E7001F001A0016001B002F00AE
:100180000041200008000700060030002C0021007C
:10019000150009001900E2000253220017000A00AE
:1001A00005000000AC002F00340000003500000006
:1001B000AB0030002E000000310000004B00230097
:1001C0001C000B00110000004E00240018000D0060
:1001D00010005000AE0025000C000E00360051004B
:1001E0002C00260012000F003700520000412700AB
:1001F0001300330038004F00E7002D002A002800CC
:10020000E5000100000001000100010039000100CB
:1002100000003A0044004A004E000100E7003B00A5
:1002200045004D004B00010001003C002F0026025C
:100230002F02010001003D00300027023002E200E1
:1002400001003E000100010001000000010001006A
:100250000100000001000000010001000100000099
:10026000010000004C053F000100010001000000FA
:1002700001004000010001000100010001004100F7
:100280000100010001000100010042000100010025
:100290000100010001004300010001000100010014
:1002A000E70056004C000100390001000000010089
:1002B0000100010001000100000001001400040021
:1002C0001D000100010001001A0015001B000100C3
:1002D00001000100090016000600010001000100F4
:1002E0001300170019000100010001000A000700B7
:1002F00005000000010001000100000001000000F5
:1003000001000100010000000100000001000100E7
:100310000D000B000E000000010001000F00110095
:100320001000010001000100180008000100010098
:10033000010001001C000C0001000100010001008F
:100340003300120001000100010001000100010062
:1003500001000100000005010980A10185031601CB
:10036000002603001A81002A830075109501810080
:10037000C0050C0901A1018504160100269C021A82
:1003800001002A9C02751095018100C00501090633
:10039000A1018505050719E029E715002501950844
:1003A000750181020508190129059505750191025C
:1003B0009501750391010507190029EF1500250125
:1003C00095F075018102C005010906A10105071913
:1003D000E029E71500250195087501810295017551
:1003E00008810105081901290595057501910295F6
:1003F00001750391010507190029FF150026FF006B
:10040000950675088100C009023B00020100A0FAB0
:10041000090400000103010100092111010001226A
:1004200040000705810308000A09040100010300D8
:10043000000009211101000122710007058203203B
:10044000000A1201100100000008EDFE0713010070
:10045000010203010403300000001603450072008E
:1004600067006F0044006F007800200045005A00CC
:10047000000016034500720067006F0044006F0023
:100480007800200045005A000000040309041124EC
:100490001FBECFEFDAE0DEBFCDBF11E0A0E0B1E0DC
:1004A000E0E1FFE302C005900D92AC3BB107D9F744
:1004B00022E0ACEBB1E001C01D92A63EB207E1F72D
:1004C0000E948D1A0C94861F0C9400008F929F92AC
:1004D000AF92BF92CF92DF92EF92FF920F931F9352
:1004E000CF93DF93CDB7DEB728970FB6F894DEBF72
:1004F0000FBECDBFFC01F080118183819481892BD7
:1005000009F408C61F3F21F40FEFF01609F402C6E4
:100510006F0185E0DE01119601900D928A95E1F759
:10052000F601228189819A81222349F00E94720A70
:10053000082F682F89819A810E94EB0A03C00E94CC
:10054000BE0A082F26E0129FF001112434E5039F14
:10055000E00DF11D1124EF0DF11DEE0FFF1FE25A0A
:10056000FE4F05911491F6018281013FFCE51F07C2
:1005700051F1882309F4C9C0033E2CE5120709F4A0
:1005800049C0F0F5013E8CE51807A1F51092AD02C7
:100590000E940310073DFCE51F0709F4C0C008F4E2
:1005A00033C10C3D2CE5120709F463C508F4E3C020
:1005B0000D3DECE51E0709F4A6C50E3D1C4509F0EE
:1005C000FAC1F6018281882309F4A4C528960FB6E2
:1005D000F894DEBF0FBECDBFDF91CF911F910F9179
:1005E000FF90EF90DF90CF90BF90AF909F908F9053
:1005F0000C94D409023E9CE5190791F481E00DC0EA
:10060000043EECE51E0741F0053EFCE51F0741F402
:1006100084E003C082E001C083E08093AD02B8CFE4
:10062000013020E8120708F4B5CF7801E894F7F814
:1006300080917B028093BC0110927B028091AD027D
:10064000813071F048F08230D9F08430F9F486EED0
:100650000E94F51D88E118C082EE0E94E41C16C0BD
:1006600080EE0E94E41C81EE0E94E41C88E10E945E
:10067000F51D81EE0E94881C80EE0E94881C06C039
:1006800082EE0E94E41C87E50E94F51D8FE39CE941
:100690000197F1F700C000005CE0A52EB12CC70166
:1006A0000A2C02C0969587950A94E2F7282F2F709E
:1006B00041F0822F90E02A3010F44D9604C0069746
:1006C00002C087E290E00E94F51D94E0A91AB108EB
:1006D000ECEFAE16EFEFBE0611F78091AD02813060
:1006E00039F040F0823031F0843051F488E206C0B5
:1006F0008CE204C082EE0E94881C02C00E94F51D9C
:100700008091BC0180937B0245CF013020E8120725
:1007100008F440CF073DFCE51F0709F034C1F6019E
:100720008281882351F01092C2010E943C0990936B
:10073000BF018093BE0182E030C080917B0285FFC3
:1007400005C081E08093C2018093C3018091C20102
:1007500081110FC08091BE019091BF010E941209CA
:10076000883C910530F486E20E94E41C86E20E94F7
:10077000881C82E035C0083D8CE5180709F092C45A
:10078000F60182818823E9F01092C3010E943C099E
:100790009093C1018093C00180E228960FB6F8942F
:1007A000DEBF0FBECDBFDF91CF911F910F91FF90A4
:1007B000EF90DF90CF90BF90AF909F908F900C9470
:1007C0007E1C80917B0281FF05C081E08093C20185
:1007D0008093C3018091C301882309F452C480E24D
:1007E00028960FB6F894DEBF0FBECDBFDF91CF9134
:1007F0001F910F91FF90EF90DF90CF90BF90AF903F
:100800009F908F900C94731C05313CE5130708F002
:10081000F7C302308CE5180708F46CC0F60182813A
:10082000882309F4CDC080E090E00E94051E8D3E33
:100830009E4F11F00E94D40984E090E00E94FD1DBB
:1008400090E09093C0028093BF02F801E350FC4512
:10085000E231F10530F4EA5AFF4F8091BF020C9467
:10086000531E8091BF02816027C0826025C08460D2
:1008700023C0806121C080621FC080641DC0806869
:100880001BC08460886018C08E7F16C08D7F14C026
:100890008B7F12C08F7E10C08F7D0EC08F7B0CC0EF
:1008A0008F770AC08B7F877F07C087FB222720F9BD
:1008B00091E0922790FB87F98093BF026091BF027D
:1008C00084E090E00E940B1E10927B0228960FB6E7
:1008D000F894DEBF0FBECDBFDF91CF911F910F9176
:1008E000FF90EF90DF90CF90BF90AF909F908F9050
:1008F0000C94601C01159CE5190709F058C0F6011D
:100900008281882309F406C410927B020E94601C35
:10091000FFEF04E31CE0F15000401040E1F700C09D
:100920000000F89481E08093E00080E28093D8009A
:100930001092C9008FE19EE40197F1F700C000001A
:100940001DBA109268001CBC10BE1FBA10927A002B
:1009500010926E0010926F0010927100109272004F
:100960001092C9001092BC0014B817B81AB81DB87C
:1009700010BA1092BC0015B818B81BB81EB811BA3E
:100980000C94003FC7C3083D2CE5120708F009CEC0
:1009900005313CE5130708F033C302308CE5180736
:1009A00008F03CCF01159CE5190709F4B3C30130E9
:1009B0001C4509F41AC381E08093C2018093C301EE
:1009C000F601828100811181882349F0C8010E94CB
:1009D000720AF82E682FC8010E94EB0A04C0C801F1
:1009E0000E94BE0AF82EB8018F2D0E940910182F00
:1009F000382FF601258122952F7002810111109266
:100A00005B02809159028770A9F0002399F080E27F
:100A1000810F883078F082E02F8338879E830E9490
:100A2000B70B809159028770EE24E3942F813885AB
:100A30009E818111E12CA92EA2944FE0A422B12C19
:100A4000FCE0AF16B10408F098C2F501E859FF4F79
:100A50000C94531E892F807F9F70F92E882319F0E4
:100A6000F29480EFF8220023B9F0FF2009F416C2B7
:100A700080E2810F883010F0311106C090917B0226
:100A8000F92AF0927B0205C090915B02F92AF0925C
:100A90005B020E942C0A02C2812F38870E94881CA8
:100AA0003885FF2009F469C2105EF094183010F008
:100AB000311106C090917B02F922F0927B0205C0B1
:100AC00090915B02F922F0925B020E942C0A55C2BF
:100AD000492F407F892F8F70403211F08295807F9F
:100AE000332319F03130E9F025C0002381F0309133
:100AF0005C02222351F0213041F4982F932B3917B7
:100B000009F43BC290935C0238C2832B4FC122236D
:100B100019F0213009F431C28E830E94260A8E8199
:100B20004BC1002321F0223008F027C23FC1211120
:100B300024C242C1002321F0222309F437C1AEC1EF
:100B4000222309F439C1BCC1292F2695269523708B
:100B500030E02115310521F02130310559F00DC269
:100B6000002319F0812F937002C080E090E00E9472
:100B7000E10F11C2002319F0812F937002C080E0B1
:100B800090E00E94CB0F07C2892F837009F079C0D3
:100B90000111FFC1812F829586958770880F880F7C
:100BA000412F4F7050E060E070E04A015B01082E79
:100BB00004C0880C991CAA1CBB1C0A94D2F714FF11
:100BC00014C04FE050E060E070E08A019B0104C077
:100BD000000F111F221F331F8A95D2F7B901A801F8
:100BE000409550956095709503C040E050E0BA0183
:100BF000969596959370892F90E000915D021091E3
:100C00005E0220915F023091600282309105A9F06E
:100C100083309105E9F0019759F0482959296A294B
:100C20007B29CB01BA01602371238223932326C041
:100C3000802A912AA22AB32A1BC0482959296A2945
:100C40007B29CB01BA01602771278227932716C021
:100C5000CB01BA0160237123822393230E94F10BFD
:100C600040915D0250915E0260915F02709160025E
:100C7000CB01BA01682979298A299B290E94F10BA5
:100C800088C1002319F0892F817001C086958823BF
:100C900009F47FC1812F829586958770880F880F10
:100CA000412F4F7050E060E070E04A015B01082E78
:100CB00004C0880C991CAA1CBB1C0A94D2F714FF10
:100CC00014C04FE050E060E070E08A019B0104C076
:100CD000000F111F221F331F8A95D2F7B901A801F7
:100CE000409550956095709503C040E050E0BA0182
:100CF000969596959370892F90E0009155021091EA
:100D00005602209157023091580282309105A9F085
:100D100083309105E9F0019759F0482959296A294A
:100D20007B29CB01BA01602371238223932326C040
:100D3000802A912AA22AB32A1BC0482959296A2944
:100D40007B29CB01BA01602771278227932716C020
:100D5000CB01BA0160237123822393230E941B0BD2
:100D6000409155025091560260915702709158027D
:100D7000CB01BA01682979298A299B290E941B0B7A
:100D800008C1412F50E0FA01E05EF109E531F105BB
:100D900008F07FC0EC58FF4F0C94531E1F70892F32
:100DA0008F71002331F00E94D00B812F0E947E1C96
:100DB000E4C00E94920B812F0E94731CDEC00023AE
:100DC00011F12111DAC0292F2F7181E090E0A0E00C
:100DD000B0E0AC01BD0104C0440F551F661F771F72
:100DE0002A95D2F78091550290915602A091570210
:100DF000B09158028A019B01082719272A273B270F
:100E0000C901B80125C0223008F0B7C0DCCF0023EB
:100E100029F0892F8F712EC00023D9F3892F8F716C
:100E20000E94920BAAC0002381F0292F2F7181E02C
:100E300090E0A0E0B0E0BC01CD0104C0660F771FD8
:100E4000881F991F2A95D2F703C060E070E0CB019C
:100E50000E941B0B92C0002381F0192F1F71812F5C
:100E60000E94D00B28E0129FC00111248360809360
:100E70005902812F0E94D00B80C081E02F830E94F5
:100E8000B70B2F81223008F478C082E00E94B70BA4
:100E900074C0002339F0222309F4BBCF812F0E94B4
:100EA000E41C6BC0222309F4B9CF193349F43FEF96
:100EB00087EE93E0315080409040E1F700C00000A1
:100EC000812F0E94881C59C0323FB1F028F4303F76
:100ED00049F0313FF9F028C0343FB9F058F0353FC0
:100EE00071F022C0002309F456C09091E50181E021
:100EF000892708C081E008270093E5014CC0011153
:100F00004AC081E08093E50146C0011144C01092BF
:100F1000E50141C0002329F08091E401882329F3F1
:100F200029C0222311F337C08091E4012223C1F0AC
:100F3000882341F09091E50181E089278093E501C4
:100F40001092E401812F002319F00E94E41C23C0B9
:100F50000E94881C86E0F60111928A95E9F71BC071
:100F60008823C9F0011117C09091E50181E089271C
:100F70008093E5011092E4010EC0F8E0AF16B104D1
:100F800041F04CF01AE0A11AB10822E0A216B10417
:100F900010F40E94F70FEE2009F4BCC080915902B2
:100FA00080FDB8C0F60112828595859585950E94D1
:100FB000D00BC6010E9466028091590285958595E5
:100FC000859528960FB6F894DEBF0FBECDBFDF9192
:100FD000CF911F910F91FF90EF90DF90CF90BF9036
:100FE000AF909F908F900C94920BF6018281882392
:100FF00009F490C08091D30281608093D3028AC0AB
:1010000006311C4509F0D7CC90917B02F601828114
:10101000882381F09A7A81E009F480E08093BD0111
:10102000811102C069E201C065E384EC91E00E9495
:101030009C090BC08091BD01811102C069E201C011
:1010400065E384EC91E00E94710928960FB6F8944C
:10105000DEBF0FBECDBFDF91CF911F910F91FF90EB
:10106000EF90DF90CF90BF90AF909F908F900C94B7
:101070002C0AF6018281882309F44CC01092AA023E
:1010800049C08091C0019091C1010E941209883C21
:10109000910508F0A4CB87E20E94E41C87E20E943D
:1010A000881C9DCB093D1C4509F085CCF601828149
:1010B00081116ACB8091C301811191CB8091C001D4
:1010C0009091C1010E941209883C910508F087CBDC
:1010D00080E20E94731C88E20E94E41C88E2289649
:1010E0000FB6F894DEBF0FBECDBFDF91CF911F9139
:1010F0000F91FF90EF90DF90CF90BF90AF909F90B7
:101100008F900C94881CF6018281882319F082E06C
:101110008093AA0228960FB6F894DEBF0FBECDBF0B
:10112000DF91CF911F910F91FF90EF90DF90CF90C3
:10113000BF90AF909F908F90089580917D02089509
:10114000CF93DF932091AA02211103C02091A00226
:1011500002C0223011F02430E1F520910601222353
:1011600039F02091BF0227FF03C060E222E002C0F5
:1011700068E021E02093E9002FEF3091E800215052
:1011800035FD06C035ED3A95F1F700002111F5CF98
:101190002091E80025FF1DC0EC018091060181111E
:1011A00005C040E050E068E070E003C070E040E05F
:1011B00050E0CE010E9484148091E8008E778093E5
:1011C000E80080E2FE01AEE7B2E001900D928A9560
:1011D000E1F7DF91CF91089578941F920F920FB6A7
:1011E0000F9211248F939F93AF93BF9380916102CD
:1011F00090916202A0916302B09164020196A11DD8
:10120000B11D8093610290936202A0936302B09338
:101210006402BF91AF919F918F910F900FBE0F907D
:101220001F901895CF92DF92EF92FF920F931F932A
:101230002FB7F8944091610250916202609163026D
:10124000709164022FBF6A017B01EE24FF248C01A0
:1012500020E030E0C016D106E206F30610F441505B
:1012600051099A01281B390BC9011F910F91FF9059
:10127000EF90DF90CF9008952FB7F894809161029E
:1012800090916202A0916302B09164022FBF089511
:101290001F920F920FB60F9211248F939F93AF93CB
:1012A000BF938091C302811113C08091610290911C
:1012B0006202A0916302B09164024196A11DB11D2A
:1012C0008093610290936202A0936302B0936402E0
:1012D000BF91AF919F918F910F900FBE0F901F9074
:1012E000189520910601222321F02091BF0227FDAD
:1012F00004C0FC013296089619C0262F2695269523
:1013000026952E31C0F4FC01E20FF11D677081E0DB
:1013100090E001C0880F6A95EAF780959281892351
:10132000828308953196E817F90729F02081261362
:10133000F9CF1082F7CF089520910601222321F0E2
:101340002091BF0227FD05C0FC0132962FEF30E04F
:1013500019C0262F2695269526952E3120F5FC01BD
:10136000E20FF11D677081E090E001C0880F6A957F
:10137000EAF79281892B828308952F3F39F03F5FEE
:10138000363041F041914613F8CF0DC04111F7CFEF
:10139000232FF5CF2F3F39F0FC01E20FF11D27FD80
:1013A000FA956283089508956DEE7EEF80E090E0F7
:1013B0000E94291E60E082E090E00E940B1E60E027
:1013C00083E090E00E940B1E10925D0210925E027C
:1013D00010925F021092600260E084E090E00E9450
:1013E0000B1E60E085E090E00E940B1E60E086E04E
:1013F00090E00E940B1E6FEF87E090E00E940B1EB2
:1014000040E050E0BA0188E090E00E941D1E60E0DC
:101410008DE090E00E940B1E40E050E0BA0188E1B0
:1014200090E00E941D1E60E087E190E00E940B1E8C
:1014300040E050E0BA018FE090E00E941D1E40E0C5
:1014400050E0BA0183E190E00C941D1E80915C0293
:10145000811110925C02089590915B0280917B0251
:10146000892B20915A02982F922B9093C40180913E
:101470005C028823D9F0892B8093C40180910601F6
:10148000882331F08091BF0287FF02C08EE101C046
:1014900086E0E6ECF1E090E0815028F021912223F3
:1014A000D9F39F5FF9CF91110E94260AE091C10202
:1014B000F091C2023097A9F080910601882359F07B
:1014C0008091BF0287FF07C08091C4018093C5014E
:1014D00085E08093C4010280F381E02D84EC91E0EB
:1014E00009940895BF92CF92DF92EF92FF920F93EB
:1014F0001F93CF93DF938C01C0905D02D0905E026A
:10150000E0905F02F0906002809155029091560247
:10151000A0915702B0915802C82AD92AEA2AFB2A78
:10152000CFE1D0E0D701C6010C2E04C0B695A79537
:10153000979587950A94D2F780FF07C0BC2EB80113
:101540008C2F0E940910019719F4219758F7B12C9C
:101550008B2DDF91CF911F910F91FF90EF90DF9036
:10156000CF90BF900895CF93DF93EC010E94720A51
:10157000BE010E940910DF91CF910895292F220FFB
:10158000920F990F890F682F669566956695982F2B
:10159000977085E0689FB001112440E050E080E042
:1015A000FA01E60FF71FE25EFD4F208130E0092EC1
:1015B00002C0369527950A94E2F721703327042E4E
:1015C00001C0220F0A94EAF7822B4F5F5F4F45302C
:1015D000510531F70895292F220F920F990F890F86
:1015E000A82FA695A695A695877051E001C0550F26
:1015F0008A95EAF785E0A89FD001112420E030E029
:1016000070E0F901EA0FFB1FE25EFD4F4081CB0164
:10161000022E02C0969587950A94E2F78170992769
:10162000819584278523842780832F5F3F4F253032
:10163000310539F708950F931F93AB01BC01CB011E
:10164000AA27BB270097A105B10511F0E0E103C06F
:10165000DB01CA01E0E0092F1A2F2B2F33270115D8
:1016600011052105310519F0E85FD901C8018C0188
:101670009D01F4E03695279517950795FA95D1F7D2
:10168000011511052105310519F0EC5FD901C801DB
:101690008C019D01F2E03695279517950795FA95EF
:1016A000D1F7011511052105310519F0EE5FD901BA
:1016B000C801B695A79597958795892B8A2B8B2B73
:1016C00009F0EF5F56985E9825982D9826982E98E9
:1016D00027982F988E2F90E0FC013197E730F10585
:1016E000A8F4E757FF4F0C94531E259A2D9A0EC06D
:1016F000259A2D9A269A2E9A09C0259A2D9A04C0C9
:10170000259A2D9A269A2E9A279A2F9A4093550217
:101710005093560260935702709358021F910F9195
:101720000C94521C0F931F9341E050E060E070E076
:1017300004C0440F551F661F771F8A95D2F7409546
:101740005095609570958091550290915602A091A8
:101750005702B09158028A019B01082319232A23BA
:101760003B23C901B8011F910F910C941B0B2091D1
:1017700059028095822380935902982F977079F4AB
:1017800030E0482F082E000C550B2417350739F090
:101790008595859585950E94920B10925902089522
:1017A0000F931F9341E050E060E070E004C0440FED
:1017B000551F661F771F8A95D2F780915502909129
:1017C0005602A0915702B09158028A019B01082B42
:1017D000192B2A2B3B2BC901B8011F910F910C9497
:1017E0001B0B60935D0270935E0280935F02909387
:1017F00060020C94521C80911D029091EC0189179B
:1018000019F08F5F8770FBCF08958091EB0182956F
:101810008F7009F054C08091E801882309F44FC00B
:1018200080911D02A091EC016091E6017091E701A9
:101830004091E9015091EA01B6E08A1709F43FC0EE
:1018400090E041155105C1F17F3F11F46F3FA1F1C7
:10185000B89FF001B99FF00D1124E351FE4F218193
:1018600072132AC02081621327C02281211124C053
:10187000238134812417350710F421503109241BAA
:10188000350B283C3105C0F42091EB012F7020610D
:101890002093EB0126E0289FF001299FF00D1124F1
:1018A000EE50FE4F80818F708061808386EE91E0E4
:1018B0000E9466020C94FB0B01968770BECF0895C0
:1018C000BF92CF92DF92EF92FF920F931F93CF932D
:1018D000DF93CDB7DEB761970FB6F894DEBF0FBECA
:1018E000CDBF8C0185E0F801DE011D9601900D92BF
:1018F0008A95E1F7D8013C9111962C911197129697
:10190000EC9012971396CD90DC9014975091E601CD
:101910006091E7018091E9019091EA01009709F453
:101920004FC16F3F19F45F3F09F44AC1B090E8011D
:10193000BB2009F4ECC04091EB01C816D90628F091
:10194000F601E81BF90BCF0104C0809590958C0D32
:101950009D1DFF24F394883C910548F0F12C407FB5
:1019600009F09FC086EE91E00E94660221C1842F9B
:10197000807F09F044C0621312C0531310C0E110FD
:101980000EC04F7040614093EB0186EE91E00E94E3
:1019900066028091EB01D80115968C932EC0CD285C
:1019A00019F12F3F11F43F3FF9F0FE2CE1101CC05C
:1019B00080911D024091EC0156E0841709F458C053
:1019C00090E0589FF001599FF00D1124E351FE4F14
:1019D0006181261306C06081361303C062816111E4
:1019E00003C001968770E9CFFE2CEE2009F421C1D7
:1019F0008091EB0181608093EB01F12C1AC162139D
:101A00000AC0531308C0E11006C08091EB01D80151
:101A100015968C93B0C03D872E878D859E850E943C
:101A20002B1C8823D1F1EE20C1F12091EB01822FF4
:101A300082958F7090E0029774F08091E60190910A
:101A4000E70198878F831986DB86CA862C87CE01AB
:101A500007960E94660286E0F801A6EEB1E00190CA
:101A60000D928A95E1F70E94050CFF24F394E1C0E2
:101A70003D872E878D859E850E94B30A292F22954A
:101A80002F7030E0223031050CF0C7C09F7009F094
:101A9000C1C0805E883008F4CCC0C8010E946602D4
:101AA000E4CF621314C0531312C0E11010C0809130
:101AB000EB01F8018583C8010E94660286E0E6EE2C
:101AC000F1E0DF011D928A95E9F7FB2CB2C03D875A
:101AD0002E878D859E850E942B1C8823F1F2EE2097
:101AE000E1F22091EB01822F82958F7090E00297B6
:101AF0000CF4B1CF8091E6019091E7019A8389833C
:101B00001B82DD82CC822E83CE010196A2CFC81625
:101B1000D90638F0C81AD90AB8ECCB16D10450F05F
:101B200007C0809590958C0D9D1D883C910510F007
:101B3000F12C3EC0FE2CEE2009F4AFCF621327C07B
:101B4000531325C02091EB0120FD18C0822F8295F0
:101B50008F70482F50E04115510581F0F801258321
:101B60004F30510541F08F5F982F9295907F822FD3
:101B70008F70892B8583C8010E94660286E0F80178
:101B8000A6EEB1E001900D928A95E1F752C03D8733
:101B90002E878D859E850E942B1C81115CCF8091A4
:101BA000EB0181608093EB01C8010E94660241C095
:101BB000E6EEF1E086E0DF011D928A95E9F739C093
:101BC000EE2009F46ACF3D872E878D859E850E9481
:101BD0002B1CF82E882309F460CF86E0F801A6EECE
:101BE000B1E001900D928A95E1F78091E601909124
:101BF000E7010E94B30A92959F70963041F480915C
:101C0000E50191E089278093E5019093E4010E942A
:101C1000050C0FC081113DCF0CC0243031050CF0F4
:101C20003CCF9F7009F435CFF8019581907F09F082
:101C300030CF8F2D61960FB6F894DEBF0FBECDBFAB
:101C4000DF91CF911F910F91FF90EF90DF90CF9098
:101C5000BF9008959091BF0292FF0DC0282F287168
:101C6000283019F4877F846006C0282F247124301F
:101C700011F48B7F886093FF0DC0282F28712831C5
:101C800019F4877E846106C0282F2471243111F451
:101C90008B7E886194FD877E0895CF93E82F8730EF
:101CA00058F58091070190910801892B09F042C0F5
:101CB000CE2F80E40E943A1490930801809307018C
:101CC000892BB1F482E10E94131490930801809350
:101CD0000701892B69F481E090E001C0880FCA9563
:101CE000EAF780950E9413149093080180930701EE
:101CF00084E98093BC001EC090E0FC013797E73078
:101D0000F105C0F4E057FF4F0C94531E209A289819
:101D100011C0219A29980EC0229A2A980BC0239AA2
:101D20002B9808C0529A5A9805C0539A5B9802C0E3
:101D30003E9A4698CF910895CF93DF93873008F06D
:101D400047C08091070190910801892B09F049C093
:101D500080E40E943A149093080180930701892B34
:101D600011F080E031C083E10E94131490930801C8
:101D700080930701892BA9F781E40E943A1490937C
:101D8000080180930701892B61F784E88093BC00E8
:101D90000E943C09EC019091BC0097FD0EC00E948E
:101DA0003C098C1B9D0B84369105A8F38EEF9FEFA9
:101DB0009093080180930701D4CF8091BB00809558
:101DC000109208011092070194E99093BC000AC098
:101DD0009FB18FB1807F869586959370892B809572
:101DE00001C080E0DF91CF910895EF92FF920F93B1
:101DF0001F93CF93DF93CDB7DEB767970FB6F894F5
:101E0000DEBF0FBECDBF4B8B5C8B6D8B7E8B8F8B04
:101E10000E891F8901151105C1F15F3F11F44F3F74
:101E2000A1F1E42EF12CA1E0B0E0042E01C0AA0F34
:101E30000A94EAF7852F90E0662319F02091E501D6
:101E400006C09C0124593D4FF90120812A232223F9
:101E5000A9F046E0489F9001499F300D1124F701F9
:101E6000E20FF31FEE0FFF1FED5EFE4F4081518129
:101E7000FC01E459FD4F9081A92B06C0FC01E459F7
:101E8000FD4FA0958081A823A08386E0FE013D96AA
:101E9000DF01982F1D929A95E9F74D875E876F872E
:101EA000198B088BDE01179601900D928A95E1F748
:101EB000CE0107960E94600C811137C086E0FE01BA
:101EC0003796DE01119601900D928A95E1F7FF8118
:101ED000E8856A857B856115710539F1EF3F11F45D
:101EE000FF3F19F12091EC0130E0C90101968770A4
:101EF000992740911D0250E08417950779F1F983E5
:101F0000EA837D836C8396E0929FD001939FB00D0E
:101F10001124A351BE4FFE01319601900D929A9566
:101F2000E1F78093EC010E94FB0B16E080911D020B
:101F30009091EC01891711F1189FC0011124835170
:101F40009E4F0E94600C8823C9F080911D0290E092
:101F500001968770992780931D02E8CF10927B022B
:101F60000E94601C1092EC0110921D02E6EEF1E05E
:101F700086E0DF011D928A95E9F7D7CF67960FB605
:101F8000F894DEBF0FBECDBFDF91CF911F910F91AF
:101F9000FF90EF90089520916A0230916B028217B2
:101FA000930771F090936B0280936A02E091C102F3
:101FB000F091C202309721F00084F185E02D099460
:101FC000089520916802309169028217930771F099
:101FD0009093690280936802E091C102F091C2027D
:101FE000309721F00680F781E02D09940895E09163
:101FF000C102F091C202309721F00190F081E02DF2
:10200000099480E008956091AD028CE090E00C941A
:102010000B1ECF93DF9326E0729FF001112434E56D
:10202000839FE00DF11D1124E60FF11DEE0FFF1F40
:10203000E25AFE4FC591D491CE01C238D10549F183
:10204000B0F4C133D10509F464C048F4C932D105F4
:1020500009F458C0CA32D10509F462C068C0C5335A
:10206000D10509F448C0C933D10599F060C0C33E19
:10207000D10541F138F4C03ED10591F0C23ED10501
:10208000B1F055C0C63ED10521F1C73ED10561F181
:102090004EC02091BF0220FD14C221FD12C213C206
:1020A0002091BF0220FF0FC289E390E00CC2209173
:1020B000BF0222FF08C28091BF0284FDB4C183EE3B
:1020C00090E001C28091BF0282FFF5CF82EE90E0E6
:1020D000FAC12091BF0223FFF6C18091BF0284FDA7
:1020E000A2C187EE90E0EFC18091BF0283FFF5CFE0
:1020F00086EE90E0E8C12091BF0225FFE4C189E2AD
:1021000090E0E1C12091BF0225FFDDC185E390E0B1
:10211000DAC12091BF0226FFD6C18AE290E0D3C186
:102120002091BF0226FFCFC181E390E0CCC1C11551
:1021300020E5D20708F047C0C11530E4D30708F006
:1021400034C1C83ED10518F5C03ED10508F0BBC169
:10215000C83AD10570F4C53AD10508F0B0C0C13015
:10216000D10509F4B0C108F45EC1249708F45BC13D
:10217000AAC1CF3BD10508F4ADC0C03CD10508F4DD
:1021800052C1FE01EE0FFF1FEA52FE4F02C1C11500
:1021900020E2D20760F4C11531E0D30708F093C103
:1021A000C03FD10508F43FC1CE0190658CC1C11577
:1021B00080E3D80708F0F0C0FE01FF70EE0FFF1FAC
:1021C000EA5AFC4FE6C0C11595E5D90708F044C0AE
:1021D000C11524E5D20708F000C1C11532E5D307C7
:1021E00010F5C11581E5D80708F0E3C02C2F237046
:1021F00081E090E002C0880F991F2A95E2F79C6861
:102200009E0174E0369527957A95E1F72370922B1D
:10221000EC2FEF70E695E69530E2E39FF001112494
:102220008E2B9F2B50C18C2F86958695AE014370C7
:102230005527C115D34508F0C1C090E2899F900190
:10224000112481E090E002C0880F991F4A95E2F7BF
:10225000822B932B9C6837C1C1152AE5D207A0F4C5
:10226000C11539E5D30708F0C6C0C11586E5D80702
:1022700008F4B8C0C11598E5D90708F4D4C09C2F5C
:102280008827806F906A1FC1C1152BE5D20708F41B
:10229000CAC0CE01C1153CE5D30708F4C1C09056B1
:1022A0008115904208F0BFC08D2F8F710E942A0EB9
:1022B000FE01FF27F0628F719F01382BAFC0C53A36
:1022C000D10509F4B3C0C63AD10509F0B2C082E81D
:1022D00090E4F9C0C83AD10509F4AEC0C93AD105B5
:1022E00009F4ADC0CA3AD10509F4ACC0CB3AD10566
:1022F00009F4ABC0CC3AD10509F4AAC0CB3BD10557
:1023000009F4A9C0CC3BD10509F4A8C0CD3AD10548
:1023100009F4A7C0C03BD10509F4A6C0CE3AD10547
:1023200009F4A5C0CF3AD10509F4A4C0C13BD10539
:1023300009F4A3C0C23BD10509F4A2C0C33BD10537
:1023400009F4A1C0C43BD10509F4A0C0C53BD10527
:1023500009F49FC0C63BD10509F49EC0C73BD10517
:1023600009F49DC0C83BD10509F49CC0C93BD10507
:1023700009F49BC0CD3BD10509F49AC0CE3BD105F1
:1023800009F499C0CA3BD10509F498C080E094E4EF
:102390009AC08591949197C09E013327C901D3FFBC
:1023A00002C0986C90C0906C8EC0CE019F70906AF5
:1023B0008AC09C2F8827816F906A85C090E2899F90
:1023C0009001112481E090E002C0880F991F4A9586
:1023D000E2F7822B932B9A6876C09C2F8827846F14
:1023E000906A71C08C2F0E942A0E8F7190E0982FF6
:1023F0008827906268C08C2F8F700E942A0EFE0181
:1024000094E0F695E7959A95E1F7EF70F0E0FE2FEE
:10241000EE27F06A8F70806E9F01282BC90153C090
:102420009927906650C080E090E04DC081E890E42C
:102430004AC083E890E447C082EE94E444C089EE49
:1024400094E441C08AEE94E43EC085EB94E43BC042
:1024500086EB94E438C083EB94E435C084EB94E4D9
:1024600032C087EB94E42FC08CEC94E42CC08DEC4C
:1024700094E429C083E895E426C08AE895E423C063
:1024800082E995E420C084E995E41DC081E296E4E8
:102490001AC083E296E417C084E296E414C085E291
:1024A00096E411C086E296E40EC087E296E40BC083
:1024B0008FE694E408C080E794E405C08AE296E4DD
:1024C00002C080EE90E0DF91CF91089580E290E02D
:1024D000909308018093070180916702811111C0D8
:1024E0001092B9008CE08093B80081E0809367027D
:1024F0002FEF83ED90E3215080409040E1F700C042
:10250000000080E40E943A14909308018093070130
:10251000892B09F040C080E00E94131490930801B9
:1025200080930701892BB9F580E00E9413149093E2
:10253000080180930701892B71F58FE30E94131422
:102540009093080180930701892B29F584E98093F2
:10255000BC0080E40E943A14909308018093070124
:10256000892BC9F48CE00E94131490930801809386
:102570000701892B81F480E00E94131490930801D5
:1025800080930701892B39F48FE30E9413149093F1
:1025900008018093070184E98093BC0080910701C2
:1025A000089556985E9825982D9826982E982798E5
:1025B0002F988FEF90E090938900809388009093FC
:1025C0008B0080938A0090938D0080938C00259AD5
:1025D0002D9A2FEF80E792E0215080409040E1F764
:1025E00000C00000269A2E9A2FEF80E792E021503B
:1025F00080409040E1F700C00000279A2F9A2FEF0B
:1026000080E792E0215080409040E1F700C0000058
:1026100025982D982FEF80E792E021508040904040
:10262000E1F700C0000026982E982FEF80E792E097
:10263000215080409040E1F700C0000027982F987B
:1026400056985E9825982D9826982E9827982F981A
:10265000089584B1807F84B985B1807F85B98AB1BE
:10266000837F8AB98BB1837F8BB93E984698089552
:1026700080B38C7080BB81B3836F81BB0895AF92B0
:10268000BF92CF92DF92EF92FF920F931F93CF935F
:10269000DF938091070190910801892B91F080913F
:1026A00066028F5F8093660281110BC00E946612E2
:1026B00090E09093080180930701892B11F40E9408
:1026C000D11201EB12E048EBE42E42E0F42E680157
:1026D000C0E0B12C37E0A32EAC0E8C2F0E944D0E23
:1026E0008A2D0E944D0E8C2F0E949C0ED6019C912B
:1026F000981719F08C93D1E001C0D0E08A2D0E9488
:102700009C0EF7019081981719F0808381E001C039
:1027100080E0D82BBD2A0E942913CF5FFFEFCF1A8C
:10272000DF0A6FEFE61AF60AC730A1F60E943C09ED
:102730006AEF70E00E943F1E782F60916502662369
:1027400081F110926502E091AB02F091AC02DF01E1
:10275000AC5ABF4FF12C2BEFE22ECAEFD0E0AF0105
:102760004A5F5F4F20812B3F99F0C22ED12C721708
:1027700020F09C012C193D0905C09E012C193D0932
:10278000280F391F2530310514F0E08201C0F62EE4
:102790003196E417F50731F7EA17FB0701F7F092D6
:1027A0006502BB20A1F14091AB025091AC02609157
:1027B0006502E4ECF2E0EE24E394F12C9EE0D92EE5
:1027C000DE0ED8019D918D0180819827DA0120E0ED
:1027D00030E0E701022E01C0CC0F0A94EAF7CC2EBC
:1027E000C92241F0CC90DBEFBD2ECB1003C07C930F
:1027F0008C2761E011962F5F3F4F2630310549F756
:102800004A5F5F4F8193DE12DCCF6093650281E007
:10281000DF91CF911F910F91FF90EF90DF90CF90BC
:10282000BF90AF900895CF93DF938093BB0084E86F
:102830008093BC000E943C09EC019091BC0097FD84
:102840000AC00E943C098C1B9D0B84369105A8F39D
:102850008EEF9FEF0CC02091B900287F81E090E0BF
:10286000283211F480E090E0919581959109DF91F3
:10287000CF9108950F931F93CF93DF93C82F10929A
:10288000BC0084EA8093BC000E943C098C019091BA
:10289000BC0097FD0AC00E943C09801B910B843646
:1028A0009105A8F38EEF9FEF2AC09091B900987F11
:1028B000983041F09091B900987F903119F08FEFE6
:1028C0009FEF1DC0C093BB0084E88093BC000E94B2
:1028D0003C09EC019091BC0097FD08C00E943C09A6
:1028E0008C1B9D0B84369105A8F3DCCF8091B90039
:1028F000887F883111F0803411F780E090E0DF911B
:10290000CF911F910F910895CF92DF92FF920F9375
:102910001F93CF93DF931F92CDB7DEB7F82E8B01B5
:1029200099830E94A419998181111CC0CF2CD92EA2
:1029300001151105B1F08091E80085FD0AC0809174
:10294000E8008E778093E8000E94A419882381F321
:1029500009C0F60181916F018093F10001501109C6
:10296000E7CF80E00F90DF91CF911F910F91FF9003
:10297000DF90CF9008951F93CF93DF93CDB7DEB74D
:10298000AA970FB6F894DEBF0FBECDBFE2EAF2E021
:1029900088E08E0F9091F10091938E13FBCF809180
:1029A000A302833009F460C030F4813071F08230CA
:1029B00009F49CC0B3C08A3009F488C08B3009F494
:1029C0006BC0893009F0AAC020C08091A202813A70
:1029D00009F0A4C08091E800877F8093E80080918F
:1029E000A6029091A702892B21F460E28EE792E083
:1029F00003C060E080E090E070E00E942A1A8091BD
:102A0000E8008B778093E80089C08091A202813230
:102A100009F084C08091A6029091A702029708F065
:102A20007DC08091E800877F8093E8008091E80076
:102A300082FD05C08091A0028111F8CF6FC0209166
:102A4000F3008091F20090E0922B029729F480919C
:102A5000F1008B7F813021F48091F10080937D0221
:102A60008091E8008B7756C08091A202813A09F0EC
:102A700055C08091A6029091A702892B09F04EC003
:102A80008091E800877F8093E8008091E80080FFD4
:102A9000FCCF8091060139C08091A2028132F1F50C
:102AA0008091A6029091A702892BC1F58091E80040
:102AB000877F8093E8000E94D6198091A4028093BA
:102AC000060110927B020E94601C28C08091A20225
:102AD000813221F58091E800877F8093E8000E9491
:102AE000D6198091A50280937C0218C08091A20221
:102AF000813AA1F48091E800877F8093E80080917B
:102B0000E80080FFFCCF80917C028093F1008091EF
:102B1000E8008E778093E8000E94D6198091E80043
:102B200083FFD6C18091A2029091A302492F50E069
:102B30004A30510508F0CCC1FA01E956FF4F0C9418
:102B4000531E803821F0823809F0C2C108C080913C
:102B50009E0290919F02992389F082600FC080911C
:102B6000A6028F70873008F0B3C18093E90080918E
:102B7000EB0085FB882780F91092E9009091E8002E
:102B8000977F9093E8008093F1001092F10074C158
:102B9000282F2D7F09F09CC1882319F0823061F025
:102BA00097C18091A402813009F092C1933009F05D
:102BB00080E080939F022EC08091A40281112AC0E0
:102BC0008091A6028F702FEF280F263008F080C169
:102BD0008093E9002091EB0020FF1CC0933021F48A
:102BE0008091EB00806214C09091EB009061909313
:102BF000EB0021E030E0A90102C0440F551F8A9587
:102C0000E2F74093EA001092EA008091EB008860BE
:102C10008093EB001092E9008091E800877F2FC13C
:102C2000811156C11091A4021F778091E300807832
:102C3000812B8093E3008091E800877F8093E800F8
:102C40000E94D6198091E80080FFFCCF8091E300BC
:102C500080688093E300111102C082E001C083E02C
:102C60008093A00235C18058823008F031C1809134
:102C7000A4029091A5028C3D53E0950779F583E07D
:102C80008A838AE289834FB7F894DE01139620E0A5
:102C90003EE051E2E32FF0E050935700E49120FF33
:102CA00003C0E295EF703F5FEF708E2F90E0EA3047
:102CB00010F0C79601C0C0968D939D932F5F24316D
:102CC00049F74FBF8091E800877F8093E8006AE270
:102CD00070E0CE0101960E942A1ABDC04091A60262
:102CE0005091A702292F332723303105B9F06CF416
:102CF0002130310509F4FBC02230310509F0E8C06C
:102D00008BE390E0E7E0F4E054C02132310509F4B0
:102D100033C02232310509F43CC0DAC09927813032
:102D20009105D1F05CF4892B09F0D2C0EAE8F4E017
:102D3000E4918E2F90E0EAE8F4E038C0823091050B
:102D400099F0039709F0C4C0E4E5F4E0E4918E2F14
:102D500090E0E4E5F4E02AC0E2E7F4E0E4918E2FAD
:102D600090E0E2E7F4E022C0EAE5F4E0E4918E2F9F
:102D700090E0EAE5F4E01AC04115510509F4BCC041
:102D80004130510509F0A4C089E090E0E2E3F4E0AD
:102D900010C04115510509F4B4C04130510509F086
:102DA00097C081E790E0E6E5F3E003C0009709F4FF
:102DB0008FC02091E800277F2093E8002091A8028F
:102DC0003091A9022817390708F4C90140E000979B
:102DD00089F12091A002222309F43DC02530D9F1C8
:102DE0002091E80023FD37C02091E80022FD2FC08C
:102DF0002091E80020FFEBCF4091F3002091F200FA
:102E000030E0342B009759F02830310540F44491DC
:102E10004093F100319601972F5F3F4FF3CF41E090
:102E20002830310509F040E02091E8002E7720930A
:102E3000E800CDCF4111CDCF0AC08091A0028823F8
:102E400051F0853041F08091E80083FD04C080910D
:102E5000E80082FFF2CF8091E8008B778093E80052
:102E600037C08038A9F58091E800877F8093E8001B
:102E70008091A1028093F1008091E8008E77809389
:102E8000E8000E94D61924C0811122C01091A4022A
:102E90001230F0F48091E800877F8093E80010936F
:102EA000A1020E94D619111106C08091E30087FD8E
:102EB00002C081E001C084E08093A00242E061ECA6
:102EC00081E00E94F51942E261EC82E00E94F5196E
:102ED0008091E80083FF1AC08091E800877F80938B
:102EE000E8008091EB0080628093EB000FC082E1EC
:102EF00090E0E2E4F4E05DCF89E090E0E9E1F4E025
:102F000058CF80E490E0E7ECF3E053CFAA960FB6F9
:102F1000F894DEBF0FBECDBFDF91CF911F91089512
:102F20001F920F920FB60F9211242F933F934F933E
:102F30005F936F937F938F939F93AF93BF93CF9341
:102F4000DF93EF93FF93C091E900CF708091EC0085
:102F5000D82FD17080FDD0E81092E9008091F00068
:102F6000877F8093F00078940E94BB141092E90050
:102F70008091F00088608093F000CD2BCF70C093DB
:102F8000E900FF91EF91DF91CF91BF91AF919F91B8
:102F90008F917F916F915F914F913F912F910F9002
:102FA0000FBE0F901F901895E8EDF0E080818E7FA6
:102FB00080831092E2001092DA001092E100A0EEFD
:102FC000B0E08C9181608C9380818F77808319BC75
:102FD000A7EDB0E08C918E7F8C9380818F7E808373
:102FE00010927A020895CF92DF92EF92FF920F93A0
:102FF0001F93CF93DF93C8EDD0E088818F7E8883C5
:10300000E7EDF0E080818160808384E082BF81E031
:1030100080937A0288818E7F888302EE10E0F80127
:1030200010821092DA0081EEC82ED12CF6011082A7
:1030300088818F77888388818068888388818F7D65
:10304000888319BC1092A0021092A10210929F02D4
:1030500010929E0290EEE92EF12CF70180818B7F79
:10306000808388818160888342E060E080E00E9404
:10307000F519F60180818E7F8083F801808181605F
:103080008083808188608083F70180818E7F808348
:10309000888180618883DF91CF911F910F91FF908C
:1030A000EF90DF90CF9008951F920F920FB60F927E
:1030B00011242F933F934F935F936F937F938F933D
:1030C0009F93AF93BF93EF93FF938091E10082FFB3
:1030D00009C08091E20082FF05C08091E1008B7FF2
:1030E0008093E1008091DA0080FF2AC08091D800AF
:1030F00080FF26C08091DA008E7F8093DA00809175
:10310000D90080FF18C080E189BD82E189BD09B482
:1031100000FEFDCF81E08093A00280917A028111B0
:103120000FC00E94D4170E94F3178091E2008460C0
:103130008093E20005C019BC1092A00210927A029E
:103140008091E10080FF17C08091E20080FF13C0F2
:103150008091E2008E7F8093E2008091E2008061A6
:103160008093E2008091D80080628093D80019BCDF
:1031700085E08093A0028091E10084FF34C08091BB
:10318000E20084FF30C080E189BD82E189BD09B4DD
:1031900000FEFDCF8091D8008F7D8093D800809174
:1031A000E1008F7E8093E1008091E2008F7E80932A
:1031B000E2008091E20081608093E2008091A102B0
:1031C000882311F084E007C08091E30087FD02C0EE
:1031D00081E001C083E08093A00210927B020E94F4
:1031E000601C0E94F70F8091E10083FF27C080914F
:1031F000E20083FF23C08091E100877F8093E1009C
:1032000082E08093A0021092A1028091E1008E7F63
:103210008093E1008091E2008E7F8093E2008091B4
:10322000E20080618093E20042E060E080E00E9482
:10323000F5198091F00088608093F000FF91EF9184
:10324000BF91AF919F918F917F916F915F914F91BE
:103250003F912F910F900FBE0F901F9018950895DA
:10326000CF93DF9300D01F92CDB7DEB79C01909132
:10327000AA02911105C08091A002843049F504C0D2
:10328000923011F0943021F584E089833B832A83C6
:1032900082E08093E9008FEF9091E800815095FDE6
:1032A00006C095ED9A95F1F700008111F5CF809158
:1032B000E80085FF0DC040E050E063E070E0CE0123
:1032C00001960E9484148091E8008E778093E80034
:1032D0000F900F900F90DF91CF910895CF93DF93D0
:1032E00000D01F92CDB7DEB72091A002243031F577
:1032F00023E02983805891099B838A8382E080930D
:10330000E9008FEF9091E800815095FD06C095EDA2
:103310009A95F1F700008111F5CF8091E80085FFC3
:103320000DC040E050E063E070E0CE0101960E94E5
:1033300084148091E8008E778093E8000F900F90BE
:103340000F90DF91CF9108952091E4003091E50036
:1033500095E64091EC00842F817040FF22C080915F
:10336000E80080FD1CC08091A002882391F0853088
:1033700091F08091EB0085FD10C04091E4005091E8
:10338000E5004217530729F39A01915011F784E0A1
:10339000089582E0089583E0089581E0089580E033
:1033A00008954091E80042FFDECF08958091A20287
:1033B00087FF11C08091E80082FD05C08091A002C6
:1033C0008111F8CF11C08091E8008B770BC08091FC
:1033D000A002882349F08091E80080FFF8CF809117
:1033E000E8008E778093E8000895982F973058F57D
:1033F0009093E900981739F07091EC002091ED005E
:103400005091F00003C0242F762F50E021FF19C007
:103410003091EB003E7F3093EB003091ED003D7F2B
:103420003093ED003091EB0031603093EB007093FE
:10343000EC002093ED005093F0002091EE0027FF68
:1034400007C09F5FD3CF8F708093E90081E008951C
:1034500080E008952091A8023091A902261737072D
:1034600048F06115710539F42091E8002E7720931A
:10347000E80001C0B90140E061157105A9F1209192
:10348000A002222309F443C0253009F442C0209150
:10349000E80023FD40C02091E80022FD32C02091C9
:1034A000E80020FFE9CF4091F3002091F20030E0E6
:1034B000342BFC01CF016115710559F0283031051D
:1034C00040F481918093F100615071092F5F3F4F6B
:1034D000F1CF41E02830310509F040E02091E800CB
:1034E0002E772093E800C8CF4111C9CF0AC0809140
:1034F000A002882361F0853061F08091E80083FDAF
:103500000AC08091E80082FFF2CF80E0089582E057
:10351000089583E0089581E00895CF93DF93CDB7B8
:10352000DEB72A970FB6F894DEBF0FBECDBF84B7C3
:10353000877F84BF0FB6F894A8958091600088615A
:1035400080936000109260000FBE80E8809361005D
:103550001092610085B7806885BF85B7806885BF98
:103560000E94D4170E94F3178091E2008460809338
:10357000E20078948091A0028823A1F01091E900E4
:103580001F709091EC00892F817090FD80E8182BBE
:103590001092E9008091E80083FD0E94BB141F7027
:1035A0001093E90082E084BD93E095BD9AEF97BD4A
:1035B00080936E000E94661290E0909308018093C1
:1035C00007010E9429130E943813A1EBB2E0E4EC3A
:1035D000F2E05EE0F52EFE0E11921D92FE12FCCF7F
:1035E00084E590E00E94591EAC019093AC02809358
:1035F000AB0220E030E08BEFFA01E20FF31F90E026
:1036000081939F5F9630E1F72A5F3F4F2435310564
:1036100099F780E090E00E94051E8D3E9E4F11F0CC
:103620000E94D4098CE090E00E94FD1D90E0A0E093
:10363000B0E08093AD029093AE02A093AF02B0933E
:10364000B00289EA8093800089E080938100249809
:103650002C983F988AB18F7C8AB96E98479A8BB123
:1036600080638BB9769A0E94D11280E090E00E942C
:10367000051E8D3E9E4F11F00E94D40982E090E01D
:103680000E94FD1D8093D30284E090E00E94FD1D06
:1036900090E09093C0028093BF0283E090E00E948C
:1036A000FD1D682F70E080E090E00E94F10B89E042
:1036B00091E09093C2028093C102EE24EA94CC245C
:1036C000C394D12C90E1892E22E1522E38E1A32E11
:1036D000B12C40E4942E8091A002853009F043C0C3
:1036E0008091A002843009F11092C3020FB6F894C1
:1036F000A895A09260000FBE9092600083B7817F72
:10370000846083BF83B7816083BF7894889583B7D3
:103710008E7F83BF0FB6F894A89580916000886172
:1037200080936000109260000FBE80919F028823FA
:1037300091F20E94661290E0909308018093070135
:103740000E9429130E943813E4ECF2E01192FE1259
:10375000FDCF0E943F13E4ECF2E08191811167C03C
:10376000FE12FBCFB8CF0E943F13E4EDF2E0A4ECD1
:10377000B2E000E010E0702F6D9121912627B1F1A9
:1037800080E090E030E0782EA901082E02C0559527
:1037900047950A94E2F740FF25C089837A83C601E2
:1037A00002C0880F991F7A94E2F73C01862F90E0BF
:1037B0008621972121E0892B09F420E02B830E94A8
:1037C0003C098160782F9D838C8349815A816B816C
:1037D0008D810E94F50EF801EC52FD4F8081682624
:1037E000608219C001968630910569F60F5F1F4F00
:1037F0000E30110509F0BFCFEE82EF8218860E94CD
:103800003C098160782F9A8789874E815F8168851E
:103810008A850E94F50E1091D2020E94F70F1817A8
:1038200009F459CF0E94F70F8093D20254CF89BC7C
:1038300059BC09B400FEFDCF8091D8008F7D8093E4
:10384000D8008091E00082608093E0008091E000E9
:1038500081FDFCCF40CF0E94B30A292F2F70929593
:103860009F70E92FF0E03297EE30F105B8F4EF5594
:10387000FF4F0C94531E803F99F018F4803E70F473
:103880000FC0843F59F40CC0803E50F0813F31F4AA
:1038900007C0822F869586958695089580E00895C5
:1038A00081E0089510925B0210925A020E942C0A45
:1038B00080E090E00E94E10F80E090E00C94CB0F5C
:1038C00080910601882331F08091BF0287FF02C0FA
:1038D0008EE101C086E0E6ECF1E0DF011D928A9501
:1038E000E9F70C94521C882341F0809590917B025B
:1038F000892380937B020C942C0A0895882339F045
:1039000090917B02892B80937B020C942C0A089562
:10391000882309F458C0682F823869F40E94F70F91
:1039200081FF51C069E384EC91E00E949C090E94F0
:103930002C0A69E30EC0833891F40E94F70F80FFD0
:1039400042C063E584EC91E00E949C090E942C0A2D
:1039500063E584EC91E00E9471090C942C0A843890
:1039600069F40E94F70F82FF2EC067E484EC91E0B7
:103970000E949C090E942C0A67E4EBCF8CEF860F13
:10398000813A38F380E2860F883070F4677081E006
:1039900090E001C0880F6A95EAF7809590917B02CC
:1039A000892380937B02D9CF8BE5860F833020F467
:1039B00080E090E00C94E10F685A673120F480E0D9
:1039C00090E00C94CB0F0895882309F40DC1682F63
:1039D0008238B1F40E94F70F81FD06C169E384ECDF
:1039E00091E00E949C090E942C0A2FEF81EE94E046
:1039F000215080409040E1F700C0000069E317C00B
:103A00008338D9F40E94F70F80FDEEC063E584ECA3
:103A100091E00E949C090E942C0A2FEF81EE94E015
:103A2000215080409040E1F700C0000063E584EC45
:103A300091E00E9471090C942C0A8438B1F40E9420
:103A4000F70F82FDD1C067E484EC91E00E949C09ED
:103A50000E942C0A2FEF81EE94E02150804090408C
:103A6000E1F700C0000067E4E2CF8CEF860F813AF7
:103A700028F484EC91E00E949C09DDCF80E2860F5F
:103A8000883068F4677081E090E001C0880F6A9523
:103A9000EAF790917B02892B80937B02CCCF8BE558
:103AA000860F833070F4653A29F0663A31F083E886
:103AB00090E005C081E890E002C082E890E00C94BC
:103AC000E10F88E5860F873108F08EC0683A09F467
:103AD00045C0693A09F445C06A3A09F445C06B3AF1
:103AE00009F445C06C3A09F445C06B3B09F445C084
:103AF0006C3B09F445C06D3A09F445C0603B09F4DC
:103B000045C06E3A09F445C06F3A09F445C0613BBF
:103B100009F445C0623B09F445C0633B09F445C064
:103B2000643B09F445C0653B09F445C0663B09F4B4
:103B300045C0673B09F445C0683B09F445C0693B93
:103B400009F445C06D3B09F445C06E3B09F445C01E
:103B50006A3B09F445C080E090E044C082EE90E00A
:103B600041C089EE90E03EC08AEE90E03BC085EB1C
:103B700090E038C086EB90E035C083EB90E032C037
:103B800084EB90E02FC087EB90E02CC08CEC90E0B1
:103B900029C08DEC90E026C083E891E023C08AE83C
:103BA00091E020C082E991E01DC084E991E01AC053
:103BB00081E292E017C083E292E014C084E292E0D6
:103BC00011C085E292E00EC086E292E00BC087E26F
:103BD00092E008C08FE690E005C080E790E002C068
:103BE0008AE292E00C94CB0F0895CF93C82F0E94E5
:103BF000E41C8C2FCF910C94881CF999FECF92BDB8
:103C000081BDF89A992780B50895A8E1B0E042E017
:103C100050E00C94311E262FF999FECF92BD81BD44
:103C2000F89A019700B4021639F01FBA20BD0FB6FA
:103C3000F894FA9AF99A0FBE08950396272F0E94D6
:103C40000C1E0E940B1E252F0E940C1E242F0C946C
:103C50000C1E0196272F0E940C1E0C940B1EDC01DB
:103C6000CB01FC01F999FECF06C0F2BDE1BDF89A87
:103C7000319600B40D9241505040B8F70895AA1BF8
:103C8000BB1B51E107C0AA1FBB1FA617B70710F047
:103C9000A61BB70B881F991F5A95A9F78095909579
:103CA000BC01CD010895EE0FFF1F0590F491E02DAA
:103CB0000994CF93DF938230910510F482E090E075
:103CC000E091E402F091E50220E030E0C0E0D0E0D5
:103CD000309711F14081518148175907C0F04817BA
:103CE000590761F482819381209719F09B838A831D
:103CF0002BC09093E5028093E40226C02115310584
:103D000019F04217530718F49A01BE01DF01EF01C1
:103D10000280F381E02DDCCF2115310509F1281B4C
:103D2000390B2430310590F412968D919C911397A4
:103D30006115710521F0FB019383828304C0909388
:103D4000E5028093E402FD01329644C0FD01E20FDA
:103D5000F31F81939193225031092D933C933AC0E4
:103D60002091E2023091E302232B41F420910201E1
:103D7000309103013093E3022093E202209100018D
:103D8000309101012115310541F42DB73EB7409125
:103D9000040150910501241B350BE091E202F091E2
:103DA000E302E217F307A0F42E1B3F0B2817390795
:103DB00078F0AC014E5F5F4F2417350748F04E0F87
:103DC0005F1F5093E3024093E2028193919302C0FC
:103DD000E0E0F0E0CF01DF91CF9108950F931F93C2
:103DE000CF93DF93009709F48CC0FC0132971382C4
:103DF00012820091E4021091E5020115110581F48F
:103E000020813181820F931F2091E2023091E302E1
:103E10002817390779F5F093E302E093E20271C0C5
:103E2000D80140E050E0AE17BF0750F412962D9134
:103E30003C911397AD012115310509F1D901F3CF5B
:103E40009D01DA013383228360817181860F971F80
:103E50008217930769F4EC0128813981260F371FF7
:103E60002E5F3F4F318320838A819B81938382839E
:103E7000452B29F4F093E502E093E40242C0139647
:103E8000FC93EE931297ED01499159919E01240FF5
:103E9000351FE217F30771F480819181840F951F1C
:103EA000029611969C938E938281938113969C9394
:103EB0008E931297E0E0F0E0D80112968D919C91DC
:103EC0001397009719F0F8018C01F6CF8D919C9112
:103ED00098012E5F3F4F820F931F2091E202309195
:103EE000E3022817390769F4309729F41092E502A4
:103EF0001092E40202C0138212821093E302009334
:103F0000E202DF91CF911F910F910895F894FFCFB6
:103F10000000E60220000120009D08A0082F196E75
:103F2000193019000D010D020D030D040D050D00D2
:103F30000C010C020C030C040C050C000B010B0211
:103F40000B030B040B050B000A010A020A030A0407
:103F50000A050A0009010902090309040905090003
:103F60000801080208030804080508000701070201
:103F700007030704070507000601060206030604F7
:103F800006050600050105020503050405050500F3
:103F900004010402040304040405040003010302F1
:103FA00003030304030503000201020202030204E7
:103FB00002050200010101020103010401050100E3
:0C3FC000000100020003000400050000E6
:00000001FF
